Component: ARM Compiler 5.05 update 1 (build 106) Tool: armlink [4d0efa]

==============================================================================

Section Cross References

    system_stm32f10x.o(.text) refers to system_stm32f10x.o(.data) for SystemCoreClock
    startup_stm32f10x_md.o(RESET) refers to startup_stm32f10x_md.o(STACK) for __initial_sp
    startup_stm32f10x_md.o(RESET) refers to startup_stm32f10x_md.o(.text) for Reset_Handler
    startup_stm32f10x_md.o(RESET) refers to stm32f10x_it.o(.text) for NMI_Handler
    startup_stm32f10x_md.o(RESET) refers to usart.o(.text) for USART1_IRQHandler
    startup_stm32f10x_md.o(.text) refers to system_stm32f10x.o(.text) for SystemInit
    startup_stm32f10x_md.o(.text) refers to entry.o(.ARM.Collect$$$$00000000) for __main
    stm32f10x_rcc.o(.text) refers to stm32f10x_rcc.o(.data) for APBAHBPrescTable
    stm32f10x_usart.o(.text) refers to stm32f10x_rcc.o(.text) for RCC_APB2PeriphResetCmd
    stm32f10x_gpio.o(.text) refers to stm32f10x_rcc.o(.text) for RCC_APB2PeriphResetCmd
    usart.o(.text) refers to stm32f10x_rcc.o(.text) for RCC_APB2PeriphClockCmd
    usart.o(.text) refers to stm32f10x_gpio.o(.text) for GPIO_Init
    usart.o(.text) refers to stm32f10x_usart.o(.text) for USART_Init
    usart.o(.text) refers to misc.o(.text) for NVIC_Init
    usart.o(.text) refers to memcpya.o(.text) for __aeabi_memcpy
    usart.o(.text) refers to memseta.o(.text) for __aeabi_memclr4
    usart.o(.text) refers to usart.o(.data) for i
    usart.o(.text) refers to usart.o(.bss) for rebuf
==============================================================================

Removing Unused input sections from the image.

    Removing core_cm3.o(.emb_text), (32 bytes).
    Removing startup_stm32f10x_md.o(HEAP), (512 bytes).
    Removing sys.o(.text), (12 bytes).

3 unused section(s) (total 556 bytes) removed from the image.

==============================================================================

Image Symbol Table

    Local Symbols

    Symbol Name                              Value     Ov Type        Size  Object(Section)

    ../clib/microlib/division.c              0x00000000   Number         0  uldiv.o ABSOLUTE
    ../clib/microlib/division.c              0x00000000   Number         0  uidiv.o ABSOLUTE
    ../clib/microlib/init/entry.s            0x00000000   Number         0  entry10a.o ABSOLUTE
    ../clib/microlib/init/entry.s            0x00000000   Number         0  entry5.o ABSOLUTE
    ../clib/microlib/init/entry.s            0x00000000   Number         0  entry8a.o ABSOLUTE
    ../clib/microlib/init/entry.s            0x00000000   Number         0  entry10b.o ABSOLUTE
    ../clib/microlib/init/entry.s            0x00000000   Number         0  entry11a.o ABSOLUTE
    ../clib/microlib/init/entry.s            0x00000000   Number         0  entry11b.o ABSOLUTE
    ../clib/microlib/init/entry.s            0x00000000   Number         0  entry8b.o ABSOLUTE
    ../clib/microlib/init/entry.s            0x00000000   Number         0  entry.o ABSOLUTE
    ../clib/microlib/init/entry.s            0x00000000   Number         0  entry9b.o ABSOLUTE
    ../clib/microlib/init/entry.s            0x00000000   Number         0  entry7b.o ABSOLUTE
    ../clib/microlib/init/entry.s            0x00000000   Number         0  entry2.o ABSOLUTE
    ../clib/microlib/init/entry.s            0x00000000   Number         0  entry9a.o ABSOLUTE
    ../clib/microlib/init/entry.s            0x00000000   Number         0  entry7a.o ABSOLUTE
    ../clib/microlib/longlong.c              0x00000000   Number         0  llushr.o ABSOLUTE
    ../clib/microlib/longlong.c              0x00000000   Number         0  llsshr.o ABSOLUTE
    ../clib/microlib/longlong.c              0x00000000   Number         0  llshl.o ABSOLUTE
    ../clib/microlib/printf/printf.c         0x00000000   Number         0  printf2.o ABSOLUTE
    ../clib/microlib/printf/printf.c         0x00000000   Number         0  printfb.o ABSOLUTE
    ../clib/microlib/printf/printf.c         0x00000000   Number         0  printf3.o ABSOLUTE
    ../clib/microlib/printf/printf.c         0x00000000   Number         0  printf4.o ABSOLUTE
    ../clib/microlib/printf/printf.c         0x00000000   Number         0  printf5.o ABSOLUTE
    ../clib/microlib/printf/printf.c         0x00000000   Number         0  printf6.o ABSOLUTE
    ../clib/microlib/printf/printf.c         0x00000000   Number         0  printf7.o ABSOLUTE
    ../clib/microlib/printf/printf.c         0x00000000   Number         0  printf8.o ABSOLUTE
    ../clib/microlib/printf/printf.c         0x00000000   Number         0  printfa.o ABSOLUTE
    ../clib/microlib/printf/printf.c         0x00000000   Number         0  printf0.o ABSOLUTE
    ../clib/microlib/printf/printf.c         0x00000000   Number         0  printf1.o ABSOLUTE
    ../clib/microlib/printf/stubs.s          0x00000000   Number         0  stubs.o ABSOLUTE
    ../clib/microlib/stdio/streams.c         0x00000000   Number         0  stdout.o ABSOLUTE
    ../clib/microlib/string/memcpy.c         0x00000000   Number         0  memcpyb.o ABSOLUTE
    ../clib/microlib/string/memcpy.c         0x00000000   Number         0  memcpya.o ABSOLUTE
    ../clib/microlib/string/memset.c         0x00000000   Number         0  memseta.o ABSOLUTE
    ../clib/microlib/stubs.s                 0x00000000   Number         0  iusefp.o ABSOLUTE
    ../fplib/microlib/f2d.c                  0x00000000   Number         0  f2d.o ABSOLUTE
    ../fplib/microlib/fpadd.c                0x00000000   Number         0  dadd.o ABSOLUTE
    ../fplib/microlib/fpdiv.c                0x00000000   Number         0  ddiv.o ABSOLUTE
    ../fplib/microlib/fpdiv.c                0x00000000   Number         0  fdiv.o ABSOLUTE
    ../fplib/microlib/fpepilogue.c           0x00000000   Number         0  depilogue.o ABSOLUTE
    ../fplib/microlib/fpepilogue.c           0x00000000   Number         0  fepilogue.o ABSOLUTE
    ../fplib/microlib/fpfix.c                0x00000000   Number         0  dfixul.o ABSOLUTE
    ../fplib/microlib/fpflt.c                0x00000000   Number         0  ffltui.o ABSOLUTE
    ../fplib/microlib/fpflt.c                0x00000000   Number         0  fflti.o ABSOLUTE
    ../fplib/microlib/fpmul.c                0x00000000   Number         0  dmul.o ABSOLUTE
    ..\Libraries\CMSIS\CM3\CoreSupport\core_cm3.c 0x00000000   Number         0  core_cm3.o ABSOLUTE
    ..\Libraries\CMSIS\CM3\DeviceSupport\ST\STM32F10x\startup\arm\startup_stm32f10x_md.s 0x00000000   Number         0  startup_stm32f10x_md.o ABSOLUTE
    ..\Libraries\CMSIS\CM3\DeviceSupport\ST\STM32F10x\system_stm32f10x.c 0x00000000   Number         0  system_stm32f10x.o ABSOLUTE
    ..\Libraries\STM32F10x_StdPeriph_Driver\src\misc.c 0x00000000   Number         0  misc.o ABSOLUTE
    ..\Libraries\STM32F10x_StdPeriph_Driver\src\stm32f10x_gpio.c 0x00000000   Number         0  stm32f10x_gpio.o ABSOLUTE
    ..\Libraries\STM32F10x_StdPeriph_Driver\src\stm32f10x_rcc.c 0x00000000   Number         0  stm32f10x_rcc.o ABSOLUTE
    ..\Libraries\STM32F10x_StdPeriph_Driver\src\stm32f10x_usart.c 0x00000000   Number         0  stm32f10x_usart.o ABSOLUTE
    ..\Peripherals\src\delay.c               0x00000000   Number         0  delay.o ABSOLUTE
    ..\Peripherals\src\led.c                 0x00000000   Number         0  led.o ABSOLUTE
    ..\Peripherals\src\stm32f10x_it.c        0x00000000   Number         0  stm32f10x_it.o ABSOLUTE
    ..\Peripherals\src\sys.c                 0x00000000   Number         0  sys.o ABSOLUTE
    ..\Peripherals\src\usart.c               0x00000000   Number         0  usart.o ABSOLUTE
    ..\\Libraries\\CMSIS\\CM3\\CoreSupport\\core_cm3.c 0x00000000   Number         0  core_cm3.o ABSOLUTE
    cdrcmple.s                               0x00000000   Number         0  cdrcmple.o ABSOLUTE
    dc.s                                     0x00000000   Number         0  dc.o ABSOLUTE
    handlers.s                               0x00000000   Number         0  handlers.o ABSOLUTE
    init.s                                   0x00000000   Number         0  init.o ABSOLUTE
    main.c                                   0x00000000   Number         0  main.o ABSOLUTE
    RESET                                    0x08000000   Section      236  startup_stm32f10x_md.o(RESET)
    .ARM.Collect$$$$00000000                 0x080000ec   Section        0  entry.o(.ARM.Collect$$$$00000000)
    .ARM.Collect$$$$00000001                 0x080000ec   Section        4  entry2.o(.ARM.Collect$$$$00000001)
    .ARM.Collect$$$$00000004                 0x080000f0   Section        4  entry5.o(.ARM.Collect$$$$00000004)
    .ARM.Collect$$$$00000008                 0x080000f4   Section        0  entry7b.o(.ARM.Collect$$$$00000008)
    .ARM.Collect$$$$0000000A                 0x080000f4   Section        0  entry8b.o(.ARM.Collect$$$$0000000A)
    .ARM.Collect$$$$0000000B                 0x080000f4   Section        8  entry9a.o(.ARM.Collect$$$$0000000B)
    .ARM.Collect$$$$0000000D                 0x080000fc   Section        0  entry10a.o(.ARM.Collect$$$$0000000D)
    .ARM.Collect$$$$0000000F                 0x080000fc   Section        0  entry11a.o(.ARM.Collect$$$$0000000F)
    .ARM.Collect$$$$00002712                 0x080000fc   Section        4  entry2.o(.ARM.Collect$$$$00002712)
    __lit__00000000                          0x080000fc   Data           4  entry2.o(.ARM.Collect$$$$00002712)
    .text                                    0x08000100   Section        0  system_stm32f10x.o(.text)
    SetSysClockTo72                          0x08000101   Thumb Code   214  system_stm32f10x.o(.text)
    SetSysClock                              0x080001d7   Thumb Code     8  system_stm32f10x.o(.text)
    .text                                    0x080002e0   Section       36  startup_stm32f10x_md.o(.text)
    .text                                    0x08000304   Section        0  stm32f10x_rcc.o(.text)
    .text                                    0x080006a8   Section        0  stm32f10x_usart.o(.text)
    .text                                    0x08000ab0   Section        0  stm32f10x_gpio.o(.text)
    .text                                    0x08000e0c   Section        0  misc.o(.text)
    .text                                    0x08000ee8   Section        0  usart.o(.text)
    .text                                    0x0800130c   Section        0  delay.o(.text)
    .text                                    0x080013b8   Section        0  stm32f10x_it.o(.text)
    .text                                    0x080013d4   Section        0  led.o(.text)
    .text                                    0x08001490   Section        0  main.o(.text)
    .text                                    0x0800174c   Section        0  memcpya.o(.text)
    .text                                    0x08001770   Section        0  memseta.o(.text)
    .text                                    0x08001794   Section        0  fdiv.o(.text)
    .text                                    0x08001810   Section        0  fflti.o(.text)
    .text                                    0x08001822   Section        0  ffltui.o(.text)
    .text                                    0x0800182c   Section        0  f2d.o(.text)
    .text                                    0x08001852   Section        0  uidiv.o(.text)
    .text                                    0x0800187e   Section        0  uldiv.o(.text)
    .text                                    0x080018e0   Section        0  iusefp.o(.text)
    .text                                    0x080018e0   Section        0  fepilogue.o(.text)
    .text                                    0x0800194e   Section        0  dadd.o(.text)
    .text                                    0x08001a9c   Section        0  dmul.o(.text)
    .text                                    0x08001b80   Section        0  ddiv.o(.text)
    .text                                    0x08001c5e   Section        0  dfixul.o(.text)
    .text                                    0x08001c90   Section       48  cdrcmple.o(.text)
    .text                                    0x08001cc0   Section       36  init.o(.text)
    .text                                    0x08001ce4   Section        0  llshl.o(.text)
    .text                                    0x08001d02   Section        0  llushr.o(.text)
    .text                                    0x08001d22   Section        0  llsshr.o(.text)
    .text                                    0x08001d46   Section        0  depilogue.o(.text)
    i.__0printf                              0x08001e00   Section        0  printfa.o(i.__0printf)
    i.__scatterload_copy                     0x08001e20   Section       14  handlers.o(i.__scatterload_copy)
    i.__scatterload_null                     0x08001e2e   Section        2  handlers.o(i.__scatterload_null)
    i.__scatterload_zeroinit                 0x08001e30   Section       14  handlers.o(i.__scatterload_zeroinit)
    i._fp_digits                             0x08001e40   Section        0  printfa.o(i._fp_digits)
    _fp_digits                               0x08001e41   Thumb Code   334  printfa.o(i._fp_digits)
    i._printf_core                           0x08001fa4   Section        0  printfa.o(i._printf_core)
    _printf_core                             0x08001fa5   Thumb Code  1744  printfa.o(i._printf_core)
    i._printf_post_padding                   0x08002680   Section        0  printfa.o(i._printf_post_padding)
    _printf_post_padding                     0x08002681   Thumb Code    36  printfa.o(i._printf_post_padding)
    i._printf_pre_padding                    0x080026a4   Section        0  printfa.o(i._printf_pre_padding)
    _printf_pre_padding                      0x080026a5   Thumb Code    46  printfa.o(i._printf_pre_padding)
    .data                                    0x20000000   Section       20  system_stm32f10x.o(.data)
    .data                                    0x20000014   Section       20  stm32f10x_rcc.o(.data)
    APBAHBPrescTable                         0x20000014   Data          16  stm32f10x_rcc.o(.data)
    ADCPrescTable                            0x20000024   Data           4  stm32f10x_rcc.o(.data)
    .data                                    0x20000028   Section        5  usart.o(.data)
    i                                        0x2000002b   Data           1  usart.o(.data)
    i                                        0x2000002c   Data           1  usart.o(.data)
    .data                                    0x2000002e   Section        4  delay.o(.data)
    Times_us                                 0x2000002e   Data           1  delay.o(.data)
    Times_ms                                 0x20000030   Data           2  delay.o(.data)
    .data                                    0x20000032   Section        2  main.o(.data)
    cnt                                      0x20000033   Data           1  main.o(.data)
    .data                                    0x20000034   Section        4  stdout.o(.data)
    .bss                                     0x20000038   Section      140  usart.o(.bss)
    rebuf                                    0x200000b0   Data          20  usart.o(.bss)
    STACK                                    0x200000c8   Section     1024  startup_stm32f10x_md.o(STACK)

    Global Symbols

    Symbol Name                              Value     Ov Type        Size  Object(Section)

    BuildAttributes$$THM_ISAv4$P$D$K$B$S$PE$A:L22UL41UL21$X:L11$S22US41US21$IEEE1$IW$USESV6$~STKCKD$USESV7$~SHL$OTIME$ROPI$EBA8$MICROLIB$REQ8$PRES8$EABIv2 0x00000000   Number         0  anon$$obj.o ABSOLUTE
    __ARM_use_no_argv                        0x00000000   Number         0  main.o ABSOLUTE
    _printf_a                                0x00000000   Number         0  stubs.o ABSOLUTE
    _printf_c                                0x00000000   Number         0  stubs.o ABSOLUTE
    _printf_charcount                        0x00000000   Number         0  stubs.o ABSOLUTE
    _printf_d                                0x00000000   Number         0  stubs.o ABSOLUTE
    _printf_e                                0x00000000   Number         0  stubs.o ABSOLUTE
    _printf_f                                0x00000000   Number         0  stubs.o ABSOLUTE
    _printf_flags                            0x00000000   Number         0  stubs.o ABSOLUTE
    _printf_fp_dec                           0x00000000   Number         0  stubs.o ABSOLUTE
    _printf_fp_hex                           0x00000000   Number         0  stubs.o ABSOLUTE
    _printf_g                                0x00000000   Number         0  stubs.o ABSOLUTE
    _printf_i                                0x00000000   Number         0  stubs.o ABSOLUTE
    _printf_int_dec                          0x00000000   Number         0  stubs.o ABSOLUTE
    _printf_l                                0x00000000   Number         0  stubs.o ABSOLUTE
    _printf_lc                               0x00000000   Number         0  stubs.o ABSOLUTE
    _printf_ll                               0x00000000   Number         0  stubs.o ABSOLUTE
    _printf_lld                              0x00000000   Number         0  stubs.o ABSOLUTE
    _printf_lli                              0x00000000   Number         0  stubs.o ABSOLUTE
    _printf_llo                              0x00000000   Number         0  stubs.o ABSOLUTE
    _printf_llu                              0x00000000   Number         0  stubs.o ABSOLUTE
    _printf_llx                              0x00000000   Number         0  stubs.o ABSOLUTE
    _printf_longlong_dec                     0x00000000   Number         0  stubs.o ABSOLUTE
    _printf_longlong_hex                     0x00000000   Number         0  stubs.o ABSOLUTE
    _printf_longlong_oct                     0x00000000   Number         0  stubs.o ABSOLUTE
    _printf_ls                               0x00000000   Number         0  stubs.o ABSOLUTE
    _printf_mbtowc                           0x00000000   Number         0  stubs.o ABSOLUTE
    _printf_n                                0x00000000   Number         0  stubs.o ABSOLUTE
    _printf_o                                0x00000000   Number         0  stubs.o ABSOLUTE
    _printf_p                                0x00000000   Number         0  stubs.o ABSOLUTE
    _printf_percent                          0x00000000   Number         0  stubs.o ABSOLUTE
    _printf_pre_padding                      0x00000000   Number         0  stubs.o ABSOLUTE
    _printf_return_value                     0x00000000   Number         0  stubs.o ABSOLUTE
    _printf_s                                0x00000000   Number         0  stubs.o ABSOLUTE
    _printf_sizespec                         0x00000000   Number         0  stubs.o ABSOLUTE
    _printf_str                              0x00000000   Number         0  stubs.o ABSOLUTE
    _printf_truncate_signed                  0x00000000   Number         0  stubs.o ABSOLUTE
    _printf_truncate_unsigned                0x00000000   Number         0  stubs.o ABSOLUTE
    _printf_u                                0x00000000   Number         0  stubs.o ABSOLUTE
    _printf_wc                               0x00000000   Number         0  stubs.o ABSOLUTE
    _printf_wctomb                           0x00000000   Number         0  stubs.o ABSOLUTE
    _printf_widthprec                        0x00000000   Number         0  stubs.o ABSOLUTE
    _printf_x                                0x00000000   Number         0  stubs.o ABSOLUTE
    __cpp_initialize__aeabi_                  - Undefined Weak Reference
    __cxa_finalize                            - Undefined Weak Reference
    __decompress                              - Undefined Weak Reference
    _clock_init                               - Undefined Weak Reference
    _microlib_exit                            - Undefined Weak Reference
    __Vectors_Size                           0x000000ec   Number         0  startup_stm32f10x_md.o ABSOLUTE
    __Vectors                                0x08000000   Data           4  startup_stm32f10x_md.o(RESET)
    __Vectors_End                            0x080000ec   Data           0  startup_stm32f10x_md.o(RESET)
    __main                                   0x080000ed   Thumb Code     0  entry.o(.ARM.Collect$$$$00000000)
    _main_stk                                0x080000ed   Thumb Code     0  entry2.o(.ARM.Collect$$$$00000001)
    _main_scatterload                        0x080000f1   Thumb Code     0  entry5.o(.ARM.Collect$$$$00000004)
    __main_after_scatterload                 0x080000f5   Thumb Code     0  entry5.o(.ARM.Collect$$$$00000004)
    _main_clock                              0x080000f5   Thumb Code     0  entry7b.o(.ARM.Collect$$$$00000008)
    _main_cpp_init                           0x080000f5   Thumb Code     0  entry8b.o(.ARM.Collect$$$$0000000A)
    _main_init                               0x080000f5   Thumb Code     0  entry9a.o(.ARM.Collect$$$$0000000B)
    __rt_final_cpp                           0x080000fd   Thumb Code     0  entry10a.o(.ARM.Collect$$$$0000000D)
    __rt_final_exit                          0x080000fd   Thumb Code     0  entry11a.o(.ARM.Collect$$$$0000000F)
    SystemInit                               0x080001df   Thumb Code    78  system_stm32f10x.o(.text)
    SystemCoreClockUpdate                    0x0800022d   Thumb Code   142  system_stm32f10x.o(.text)
    Reset_Handler                            0x080002e1   Thumb Code     8  startup_stm32f10x_md.o(.text)
    ADC1_2_IRQHandler                        0x080002fb   Thumb Code     0  startup_stm32f10x_md.o(.text)
    CAN1_RX1_IRQHandler                      0x080002fb   Thumb Code     0  startup_stm32f10x_md.o(.text)
    CAN1_SCE_IRQHandler                      0x080002fb   Thumb Code     0  startup_stm32f10x_md.o(.text)
    DMA1_Channel1_IRQHandler                 0x080002fb   Thumb Code     0  startup_stm32f10x_md.o(.text)
    DMA1_Channel2_IRQHandler                 0x080002fb   Thumb Code     0  startup_stm32f10x_md.o(.text)
    DMA1_Channel3_IRQHandler                 0x080002fb   Thumb Code     0  startup_stm32f10x_md.o(.text)
    DMA1_Channel4_IRQHandler                 0x080002fb   Thumb Code     0  startup_stm32f10x_md.o(.text)
    DMA1_Channel5_IRQHandler                 0x080002fb   Thumb Code     0  startup_stm32f10x_md.o(.text)
    DMA1_Channel6_IRQHandler                 0x080002fb   Thumb Code     0  startup_stm32f10x_md.o(.text)
    DMA1_Channel7_IRQHandler                 0x080002fb   Thumb Code     0  startup_stm32f10x_md.o(.text)
    EXTI0_IRQHandler                         0x080002fb   Thumb Code     0  startup_stm32f10x_md.o(.text)
    EXTI15_10_IRQHandler                     0x080002fb   Thumb Code     0  startup_stm32f10x_md.o(.text)
    EXTI1_IRQHandler                         0x080002fb   Thumb Code     0  startup_stm32f10x_md.o(.text)
    EXTI2_IRQHandler                         0x080002fb   Thumb Code     0  startup_stm32f10x_md.o(.text)
    EXTI3_IRQHandler                         0x080002fb   Thumb Code     0  startup_stm32f10x_md.o(.text)
    EXTI4_IRQHandler                         0x080002fb   Thumb Code     0  startup_stm32f10x_md.o(.text)
    FLASH_IRQHandler                         0x080002fb   Thumb Code     0  startup_stm32f10x_md.o(.text)
    I2C1_ER_IRQHandler                       0x080002fb   Thumb Code     0  startup_stm32f10x_md.o(.text)
    I2C1_EV_IRQHandler                       0x080002fb   Thumb Code     0  startup_stm32f10x_md.o(.text)
    I2C2_ER_IRQHandler                       0x080002fb   Thumb Code     0  startup_stm32f10x_md.o(.text)
    I2C2_EV_IRQHandler                       0x080002fb   Thumb Code     0  startup_stm32f10x_md.o(.text)
    PVD_IRQHandler                           0x080002fb   Thumb Code     0  startup_stm32f10x_md.o(.text)
    RCC_IRQHandler                           0x080002fb   Thumb Code     0  startup_stm32f10x_md.o(.text)
    RTCAlarm_IRQHandler                      0x080002fb   Thumb Code     0  startup_stm32f10x_md.o(.text)
    RTC_IRQHandler                           0x080002fb   Thumb Code     0  startup_stm32f10x_md.o(.text)
    SPI1_IRQHandler                          0x080002fb   Thumb Code     0  startup_stm32f10x_md.o(.text)
    SPI2_IRQHandler                          0x080002fb   Thumb Code     0  startup_stm32f10x_md.o(.text)
    TAMPER_IRQHandler                        0x080002fb   Thumb Code     0  startup_stm32f10x_md.o(.text)
    TIM1_BRK_IRQHandler                      0x080002fb   Thumb Code     0  startup_stm32f10x_md.o(.text)
    TIM1_CC_IRQHandler                       0x080002fb   Thumb Code     0  startup_stm32f10x_md.o(.text)
    TIM1_TRG_COM_IRQHandler                  0x080002fb   Thumb Code     0  startup_stm32f10x_md.o(.text)
    TIM1_UP_IRQHandler                       0x080002fb   Thumb Code     0  startup_stm32f10x_md.o(.text)
    TIM2_IRQHandler                          0x080002fb   Thumb Code     0  startup_stm32f10x_md.o(.text)
    TIM3_IRQHandler                          0x080002fb   Thumb Code     0  startup_stm32f10x_md.o(.text)
    TIM4_IRQHandler                          0x080002fb   Thumb Code     0  startup_stm32f10x_md.o(.text)
    USBWakeUp_IRQHandler                     0x080002fb   Thumb Code     0  startup_stm32f10x_md.o(.text)
    USB_HP_CAN1_TX_IRQHandler                0x080002fb   Thumb Code     0  startup_stm32f10x_md.o(.text)
    USB_LP_CAN1_RX0_IRQHandler               0x080002fb   Thumb Code     0  startup_stm32f10x_md.o(.text)
    WWDG_IRQHandler                          0x080002fb   Thumb Code     0  startup_stm32f10x_md.o(.text)
    RCC_DeInit                               0x08000305   Thumb Code    64  stm32f10x_rcc.o(.text)
    RCC_HSEConfig                            0x08000345   Thumb Code    70  stm32f10x_rcc.o(.text)
    RCC_GetFlagStatus                        0x0800038b   Thumb Code    56  stm32f10x_rcc.o(.text)
    RCC_WaitForHSEStartUp                    0x080003c3   Thumb Code    56  stm32f10x_rcc.o(.text)
    RCC_AdjustHSICalibrationValue            0x080003fb   Thumb Code    20  stm32f10x_rcc.o(.text)
    RCC_HSICmd                               0x0800040f   Thumb Code     6  stm32f10x_rcc.o(.text)
    RCC_PLLConfig                            0x08000415   Thumb Code    24  stm32f10x_rcc.o(.text)
    RCC_PLLCmd                               0x0800042d   Thumb Code     6  stm32f10x_rcc.o(.text)
    RCC_SYSCLKConfig                         0x08000433   Thumb Code    18  stm32f10x_rcc.o(.text)
    RCC_GetSYSCLKSource                      0x08000445   Thumb Code    10  stm32f10x_rcc.o(.text)
    RCC_HCLKConfig                           0x0800044f   Thumb Code    18  stm32f10x_rcc.o(.text)
    RCC_PCLK1Config                          0x08000461   Thumb Code    18  stm32f10x_rcc.o(.text)
    RCC_PCLK2Config                          0x08000473   Thumb Code    20  stm32f10x_rcc.o(.text)
    RCC_ITConfig                             0x08000487   Thumb Code    26  stm32f10x_rcc.o(.text)
    RCC_USBCLKConfig                         0x080004a1   Thumb Code     8  stm32f10x_rcc.o(.text)
    RCC_ADCCLKConfig                         0x080004a9   Thumb Code    18  stm32f10x_rcc.o(.text)
    RCC_LSEConfig                            0x080004bb   Thumb Code    50  stm32f10x_rcc.o(.text)
    RCC_LSICmd                               0x080004ed   Thumb Code     6  stm32f10x_rcc.o(.text)
    RCC_RTCCLKConfig                         0x080004f3   Thumb Code    12  stm32f10x_rcc.o(.text)
    RCC_RTCCLKCmd                            0x080004ff   Thumb Code     8  stm32f10x_rcc.o(.text)
    RCC_GetClocksFreq                        0x08000507   Thumb Code   192  stm32f10x_rcc.o(.text)
    RCC_AHBPeriphClockCmd                    0x080005c7   Thumb Code    26  stm32f10x_rcc.o(.text)
    RCC_APB2PeriphClockCmd                   0x080005e1   Thumb Code    26  stm32f10x_rcc.o(.text)
    RCC_APB1PeriphClockCmd                   0x080005fb   Thumb Code    26  stm32f10x_rcc.o(.text)
    RCC_APB2PeriphResetCmd                   0x08000615   Thumb Code    26  stm32f10x_rcc.o(.text)
    RCC_APB1PeriphResetCmd                   0x0800062f   Thumb Code    26  stm32f10x_rcc.o(.text)
    RCC_BackupResetCmd                       0x08000649   Thumb Code     8  stm32f10x_rcc.o(.text)
    RCC_ClockSecuritySystemCmd               0x08000651   Thumb Code     6  stm32f10x_rcc.o(.text)
    RCC_MCOConfig                            0x08000657   Thumb Code     6  stm32f10x_rcc.o(.text)
    RCC_ClearFlag                            0x0800065d   Thumb Code    14  stm32f10x_rcc.o(.text)
    RCC_GetITStatus                          0x0800066b   Thumb Code    20  stm32f10x_rcc.o(.text)
    RCC_ClearITPendingBit                    0x0800067f   Thumb Code     6  stm32f10x_rcc.o(.text)
    USART_DeInit                             0x080006a9   Thumb Code   134  stm32f10x_usart.o(.text)
    USART_Init                               0x0800072f   Thumb Code   210  stm32f10x_usart.o(.text)
    USART_StructInit                         0x08000801   Thumb Code    24  stm32f10x_usart.o(.text)
    USART_ClockInit                          0x08000819   Thumb Code    34  stm32f10x_usart.o(.text)
    USART_ClockStructInit                    0x0800083b   Thumb Code    12  stm32f10x_usart.o(.text)
    USART_Cmd                                0x08000847   Thumb Code    24  stm32f10x_usart.o(.text)
    USART_ITConfig                           0x0800085f   Thumb Code    74  stm32f10x_usart.o(.text)
    USART_DMACmd                             0x080008a9   Thumb Code    18  stm32f10x_usart.o(.text)
    USART_SetAddress                         0x080008bb   Thumb Code    18  stm32f10x_usart.o(.text)
    USART_WakeUpConfig                       0x080008cd   Thumb Code    18  stm32f10x_usart.o(.text)
    USART_ReceiverWakeUpCmd                  0x080008df   Thumb Code    24  stm32f10x_usart.o(.text)
    USART_LINBreakDetectLengthConfig         0x080008f7   Thumb Code    18  stm32f10x_usart.o(.text)
    USART_LINCmd                             0x08000909   Thumb Code    24  stm32f10x_usart.o(.text)
    USART_SendData                           0x08000921   Thumb Code     8  stm32f10x_usart.o(.text)
    USART_ReceiveData                        0x08000929   Thumb Code    10  stm32f10x_usart.o(.text)
    USART_SendBreak                          0x08000933   Thumb Code    10  stm32f10x_usart.o(.text)
    USART_SetGuardTime                       0x0800093d   Thumb Code    16  stm32f10x_usart.o(.text)
    USART_SetPrescaler                       0x0800094d   Thumb Code    16  stm32f10x_usart.o(.text)
    USART_SmartCardCmd                       0x0800095d   Thumb Code    24  stm32f10x_usart.o(.text)
    USART_SmartCardNACKCmd                   0x08000975   Thumb Code    24  stm32f10x_usart.o(.text)
    USART_HalfDuplexCmd                      0x0800098d   Thumb Code    24  stm32f10x_usart.o(.text)
    USART_OverSampling8Cmd                   0x080009a5   Thumb Code    22  stm32f10x_usart.o(.text)
    USART_OneBitMethodCmd                    0x080009bb   Thumb Code    24  stm32f10x_usart.o(.text)
    USART_IrDAConfig                         0x080009d3   Thumb Code    18  stm32f10x_usart.o(.text)
    USART_IrDACmd                            0x080009e5   Thumb Code    24  stm32f10x_usart.o(.text)
    USART_GetFlagStatus                      0x080009fd   Thumb Code    26  stm32f10x_usart.o(.text)
    USART_ClearFlag                          0x08000a17   Thumb Code    18  stm32f10x_usart.o(.text)
    USART_GetITStatus                        0x08000a29   Thumb Code    84  stm32f10x_usart.o(.text)
    USART_ClearITPendingBit                  0x08000a7d   Thumb Code    52  stm32f10x_usart.o(.text)
    GPIO_DeInit                              0x08000ab1   Thumb Code   172  stm32f10x_gpio.o(.text)
    GPIO_AFIODeInit                          0x08000b5d   Thumb Code    20  stm32f10x_gpio.o(.text)
    GPIO_Init                                0x08000b71   Thumb Code   278  stm32f10x_gpio.o(.text)
    GPIO_StructInit                          0x08000c87   Thumb Code    16  stm32f10x_gpio.o(.text)
    GPIO_ReadInputDataBit                    0x08000c97   Thumb Code    18  stm32f10x_gpio.o(.text)
    GPIO_ReadInputData                       0x08000ca9   Thumb Code     8  stm32f10x_gpio.o(.text)
    GPIO_ReadOutputDataBit                   0x08000cb1   Thumb Code    18  stm32f10x_gpio.o(.text)
    GPIO_ReadOutputData                      0x08000cc3   Thumb Code     8  stm32f10x_gpio.o(.text)
    GPIO_SetBits                             0x08000ccb   Thumb Code     4  stm32f10x_gpio.o(.text)
    GPIO_ResetBits                           0x08000ccf   Thumb Code     4  stm32f10x_gpio.o(.text)
    GPIO_WriteBit                            0x08000cd3   Thumb Code    10  stm32f10x_gpio.o(.text)
    GPIO_Write                               0x08000cdd   Thumb Code     4  stm32f10x_gpio.o(.text)
    GPIO_PinLockConfig                       0x08000ce1   Thumb Code    18  stm32f10x_gpio.o(.text)
    GPIO_EventOutputConfig                   0x08000cf3   Thumb Code    26  stm32f10x_gpio.o(.text)
    GPIO_EventOutputCmd                      0x08000d0d   Thumb Code     6  stm32f10x_gpio.o(.text)
    GPIO_PinRemapConfig                      0x08000d13   Thumb Code   138  stm32f10x_gpio.o(.text)
    GPIO_EXTILineConfig                      0x08000d9d   Thumb Code    66  stm32f10x_gpio.o(.text)
    GPIO_ETH_MediaInterfaceConfig            0x08000ddf   Thumb Code     8  stm32f10x_gpio.o(.text)
    NVIC_PriorityGroupConfig                 0x08000e0d   Thumb Code    10  misc.o(.text)
    NVIC_Init                                0x08000e17   Thumb Code   100  misc.o(.text)
    NVIC_SetVectorTable                      0x08000e7b   Thumb Code    14  misc.o(.text)
    NVIC_SystemLPConfig                      0x08000e89   Thumb Code    34  misc.o(.text)
    SysTick_CLKSourceConfig                  0x08000eab   Thumb Code    40  misc.o(.text)
    Usart1_Initial                           0x08000ee9   Thumb Code   158  usart.o(.text)
    USART1_IRQHandler                        0x08000f87   Thumb Code   142  usart.o(.text)
    USART1_send_byte                         0x08001015   Thumb Code    26  usart.o(.text)
    USART_Send_bytes                         0x0800102f   Thumb Code    28  usart.o(.text)
    USART_Send                               0x0800104b   Thumb Code    46  usart.o(.text)
    send_3out                                0x08001079   Thumb Code    98  usart.o(.text)
    Usart2_Initial                           0x080010db   Thumb Code   172  usart.o(.text)
    USART2_IRQHandler                        0x08001187   Thumb Code    94  usart.o(.text)
    USART2_send_byte                         0x080011e5   Thumb Code    26  usart.o(.text)
    USART2_send_16out                        0x080011ff   Thumb Code    20  usart.o(.text)
    USART2_Send2Master                       0x08001213   Thumb Code    52  usart.o(.text)
    Usart3_Initial                           0x08001247   Thumb Code   146  usart.o(.text)
    USART3_IRQHandler                        0x080012d9   Thumb Code     2  usart.o(.text)
    delay_init                               0x0800130d   Thumb Code    52  delay.o(.text)
    delay_us                                 0x08001341   Thumb Code    56  delay.o(.text)
    delay_ms                                 0x08001379   Thumb Code    56  delay.o(.text)
    NMI_Handler                              0x080013b9   Thumb Code     2  stm32f10x_it.o(.text)
    HardFault_Handler                        0x080013bb   Thumb Code     4  stm32f10x_it.o(.text)
    MemManage_Handler                        0x080013bf   Thumb Code     4  stm32f10x_it.o(.text)
    BusFault_Handler                         0x080013c3   Thumb Code     4  stm32f10x_it.o(.text)
    UsageFault_Handler                       0x080013c7   Thumb Code     4  stm32f10x_it.o(.text)
    SVC_Handler                              0x080013cb   Thumb Code     2  stm32f10x_it.o(.text)
    DebugMon_Handler                         0x080013cd   Thumb Code     2  stm32f10x_it.o(.text)
    PendSV_Handler                           0x080013cf   Thumb Code     2  stm32f10x_it.o(.text)
    SysTick_Handler                          0x080013d1   Thumb Code     2  stm32f10x_it.o(.text)
    EXTI9_5_IRQHandler                       0x080013d3   Thumb Code     2  stm32f10x_it.o(.text)
    LED_Init                                 0x080013d5   Thumb Code    50  led.o(.text)
    LED_Glimmer                              0x08001407   Thumb Code    32  led.o(.text)
    LED2_Init                                0x08001427   Thumb Code    50  led.o(.text)
    LED2_Glimmer                             0x08001459   Thumb Code    32  led.o(.text)
    send_com                                 0x08001491   Thumb Code    34  main.o(.text)
    fputc                                    0x080014b3   Thumb Code    32  main.o(.text)
    TransceiverControl                       0x080014d3   Thumb Code    88  main.o(.text)
    main                                     0x0800152b   Thumb Code   444  main.o(.text)
    __aeabi_memcpy                           0x0800174d   Thumb Code    36  memcpya.o(.text)
    __aeabi_memcpy4                          0x0800174d   Thumb Code     0  memcpya.o(.text)
    __aeabi_memcpy8                          0x0800174d   Thumb Code     0  memcpya.o(.text)
    __aeabi_memset                           0x08001771   Thumb Code    14  memseta.o(.text)
    __aeabi_memset4                          0x08001771   Thumb Code     0  memseta.o(.text)
    __aeabi_memset8                          0x08001771   Thumb Code     0  memseta.o(.text)
    __aeabi_memclr                           0x0800177f   Thumb Code     4  memseta.o(.text)
    __aeabi_memclr4                          0x0800177f   Thumb Code     0  memseta.o(.text)
    __aeabi_memclr8                          0x0800177f   Thumb Code     0  memseta.o(.text)
    _memset$wrapper                          0x08001783   Thumb Code    18  memseta.o(.text)
    __aeabi_fdiv                             0x08001795   Thumb Code   124  fdiv.o(.text)
    __aeabi_i2f                              0x08001811   Thumb Code    18  fflti.o(.text)
    __aeabi_ui2f                             0x08001823   Thumb Code    10  ffltui.o(.text)
    __aeabi_f2d                              0x0800182d   Thumb Code    38  f2d.o(.text)
    __aeabi_uidiv                            0x08001853   Thumb Code     0  uidiv.o(.text)
    __aeabi_uidivmod                         0x08001853   Thumb Code    44  uidiv.o(.text)
    __aeabi_uldivmod                         0x0800187f   Thumb Code    98  uldiv.o(.text)
    __I$use$fp                               0x080018e1   Thumb Code     0  iusefp.o(.text)
    _float_round                             0x080018e1   Thumb Code    18  fepilogue.o(.text)
    _float_epilogue                          0x080018f3   Thumb Code    92  fepilogue.o(.text)
    __aeabi_dadd                             0x0800194f   Thumb Code   322  dadd.o(.text)
    __aeabi_dsub                             0x08001a91   Thumb Code     6  dadd.o(.text)
    __aeabi_drsub                            0x08001a97   Thumb Code     6  dadd.o(.text)
    __aeabi_dmul                             0x08001a9d   Thumb Code   228  dmul.o(.text)
    __aeabi_ddiv                             0x08001b81   Thumb Code   222  ddiv.o(.text)
    __aeabi_d2ulz                            0x08001c5f   Thumb Code    48  dfixul.o(.text)
    __aeabi_cdrcmple                         0x08001c91   Thumb Code    48  cdrcmple.o(.text)
    __scatterload                            0x08001cc1   Thumb Code    28  init.o(.text)
    __scatterload_rt2                        0x08001cc1   Thumb Code     0  init.o(.text)
    __aeabi_llsl                             0x08001ce5   Thumb Code    30  llshl.o(.text)
    _ll_shift_l                              0x08001ce5   Thumb Code     0  llshl.o(.text)
    __aeabi_llsr                             0x08001d03   Thumb Code    32  llushr.o(.text)
    _ll_ushift_r                             0x08001d03   Thumb Code     0  llushr.o(.text)
    __aeabi_lasr                             0x08001d23   Thumb Code    36  llsshr.o(.text)
    _ll_sshift_r                             0x08001d23   Thumb Code     0  llsshr.o(.text)
    _double_round                            0x08001d47   Thumb Code    30  depilogue.o(.text)
    _double_epilogue                         0x08001d65   Thumb Code   156  depilogue.o(.text)
    __0printf                                0x08001e01   Thumb Code    22  printfa.o(i.__0printf)
    __1printf                                0x08001e01   Thumb Code     0  printfa.o(i.__0printf)
    __2printf                                0x08001e01   Thumb Code     0  printfa.o(i.__0printf)
    __c89printf                              0x08001e01   Thumb Code     0  printfa.o(i.__0printf)
    printf                                   0x08001e01   Thumb Code     0  printfa.o(i.__0printf)
    __scatterload_copy                       0x08001e21   Thumb Code    14  handlers.o(i.__scatterload_copy)
    __scatterload_null                       0x08001e2f   Thumb Code     2  handlers.o(i.__scatterload_null)
    __scatterload_zeroinit                   0x08001e31   Thumb Code    14  handlers.o(i.__scatterload_zeroinit)
    Region$$Table$$Base                      0x080026d4   Number         0  anon$$obj.o(Region$$Table)
    Region$$Table$$Limit                     0x080026f4   Number         0  anon$$obj.o(Region$$Table)
    SystemCoreClock                          0x20000000   Data           4  system_stm32f10x.o(.data)
    AHBPrescTable                            0x20000004   Data          16  system_stm32f10x.o(.data)
    USART3_RX_STA                            0x20000028   Data           2  usart.o(.data)
    Receive_ok                               0x2000002a   Data           1  usart.o(.data)
    controlflag                              0x20000032   Data           1  main.o(.data)
    __stdout                                 0x20000034   Data           4  stdout.o(.data)
    USART3_RX_BUF                            0x20000038   Data         100  usart.o(.bss)
    raw_data                                 0x2000009c   Data          20  usart.o(.bss)
    __initial_sp                             0x200004c8   Data           0  startup_stm32f10x_md.o(STACK)



==============================================================================

Memory Map of the image

  Image Entry point : 0x080000ed

  Load Region LR_IROM1 (Base: 0x08000000, Size: 0x0000272c, Max: 0x00010000, ABSOLUTE)

    Execution Region ER_IROM1 (Base: 0x08000000, Size: 0x000026f4, Max: 0x00010000, ABSOLUTE)

    Base Addr    Size         Type   Attr      Idx    E Section Name        Object

    0x08000000   0x000000ec   Data   RO           59    RESET               startup_stm32f10x_md.o
    0x080000ec   0x00000000   Code   RO          226  * .ARM.Collect$$$$00000000  mc_w.l(entry.o)
    0x080000ec   0x00000004   Code   RO          504    .ARM.Collect$$$$00000001  mc_w.l(entry2.o)
    0x080000f0   0x00000004   Code   RO          507    .ARM.Collect$$$$00000004  mc_w.l(entry5.o)
    0x080000f4   0x00000000   Code   RO          509    .ARM.Collect$$$$00000008  mc_w.l(entry7b.o)
    0x080000f4   0x00000000   Code   RO          511    .ARM.Collect$$$$0000000A  mc_w.l(entry8b.o)
    0x080000f4   0x00000008   Code   RO          512    .ARM.Collect$$$$0000000B  mc_w.l(entry9a.o)
    0x080000fc   0x00000000   Code   RO          514    .ARM.Collect$$$$0000000D  mc_w.l(entry10a.o)
    0x080000fc   0x00000000   Code   RO          516    .ARM.Collect$$$$0000000F  mc_w.l(entry11a.o)
    0x080000fc   0x00000004   Code   RO          505    .ARM.Collect$$$$00002712  mc_w.l(entry2.o)
    0x08000100   0x000001e0   Code   RO           17    .text               system_stm32f10x.o
    0x080002e0   0x00000024   Code   RO           60    .text               startup_stm32f10x_md.o
    0x08000304   0x000003a4   Code   RO           64    .text               stm32f10x_rcc.o
    0x080006a8   0x00000408   Code   RO           82    .text               stm32f10x_usart.o
    0x08000ab0   0x0000035c   Code   RO           94    .text               stm32f10x_gpio.o
    0x08000e0c   0x000000dc   Code   RO          106    .text               misc.o
    0x08000ee8   0x00000424   Code   RO          118    .text               usart.o
    0x0800130c   0x000000ac   Code   RO          147    .text               delay.o
    0x080013b8   0x0000001c   Code   RO          164    .text               stm32f10x_it.o
    0x080013d4   0x000000bc   Code   RO          183    .text               led.o
    0x08001490   0x000002bc   Code   RO          207    .text               main.o
    0x0800174c   0x00000024   Code   RO          229    .text               mc_w.l(memcpya.o)
    0x08001770   0x00000024   Code   RO          231    .text               mc_w.l(memseta.o)
    0x08001794   0x0000007c   Code   RO          496    .text               mf_w.l(fdiv.o)
    0x08001810   0x00000012   Code   RO          498    .text               mf_w.l(fflti.o)
    0x08001822   0x0000000a   Code   RO          500    .text               mf_w.l(ffltui.o)
    0x0800182c   0x00000026   Code   RO          502    .text               mf_w.l(f2d.o)
    0x08001852   0x0000002c   Code   RO          519    .text               mc_w.l(uidiv.o)
    0x0800187e   0x00000062   Code   RO          521    .text               mc_w.l(uldiv.o)
    0x080018e0   0x00000000   Code   RO          523    .text               mc_w.l(iusefp.o)
    0x080018e0   0x0000006e   Code   RO          524    .text               mf_w.l(fepilogue.o)
    0x0800194e   0x0000014e   Code   RO          526    .text               mf_w.l(dadd.o)
    0x08001a9c   0x000000e4   Code   RO          528    .text               mf_w.l(dmul.o)
    0x08001b80   0x000000de   Code   RO          530    .text               mf_w.l(ddiv.o)
    0x08001c5e   0x00000030   Code   RO          532    .text               mf_w.l(dfixul.o)
    0x08001c8e   0x00000002   PAD
    0x08001c90   0x00000030   Code   RO          534    .text               mf_w.l(cdrcmple.o)
    0x08001cc0   0x00000024   Code   RO          536    .text               mc_w.l(init.o)
    0x08001ce4   0x0000001e   Code   RO          538    .text               mc_w.l(llshl.o)
    0x08001d02   0x00000020   Code   RO          540    .text               mc_w.l(llushr.o)
    0x08001d22   0x00000024   Code   RO          542    .text               mc_w.l(llsshr.o)
    0x08001d46   0x000000ba   Code   RO          544    .text               mf_w.l(depilogue.o)
    0x08001e00   0x00000020   Code   RO          468    i.__0printf         mc_w.l(printfa.o)
    0x08001e20   0x0000000e   Code   RO          548    i.__scatterload_copy  mc_w.l(handlers.o)
    0x08001e2e   0x00000002   Code   RO          549    i.__scatterload_null  mc_w.l(handlers.o)
    0x08001e30   0x0000000e   Code   RO          550    i.__scatterload_zeroinit  mc_w.l(handlers.o)
    0x08001e3e   0x00000002   PAD
    0x08001e40   0x00000164   Code   RO          475    i._fp_digits        mc_w.l(printfa.o)
    0x08001fa4   0x000006dc   Code   RO          476    i._printf_core      mc_w.l(printfa.o)
    0x08002680   0x00000024   Code   RO          477    i._printf_post_padding  mc_w.l(printfa.o)
    0x080026a4   0x0000002e   Code   RO          478    i._printf_pre_padding  mc_w.l(printfa.o)
    0x080026d2   0x00000002   PAD
    0x080026d4   0x00000020   Data   RO          546    Region$$Table       anon$$obj.o


    Execution Region RW_IRAM1 (Base: 0x20000000, Size: 0x000004c8, Max: 0x00005000, ABSOLUTE)

    Base Addr    Size         Type   Attr      Idx    E Section Name        Object

    0x20000000   0x00000014   Data   RW           18    .data               system_stm32f10x.o
    0x20000014   0x00000014   Data   RW           65    .data               stm32f10x_rcc.o
    0x20000028   0x00000005   Data   RW          120    .data               usart.o
    0x2000002d   0x00000001   PAD
    0x2000002e   0x00000004   Data   RW          148    .data               delay.o
    0x20000032   0x00000002   Data   RW          208    .data               main.o
    0x20000034   0x00000004   Data   RW          518    .data               mc_w.l(stdout.o)
    0x20000038   0x0000008c   Zero   RW          119    .bss                usart.o
    0x200000c4   0x00000004   PAD
    0x200000c8   0x00000400   Zero   RW           57    STACK               startup_stm32f10x_md.o


==============================================================================

Image component sizes


      Code (inc. data)   RO Data    RW Data    ZI Data      Debug   Object Name

         0          0          0          0          0       4536   core_cm3.o
       172          8          0          4          0       1123   delay.o
       188         24          0          0          0       1014   led.o
       700        102          0          2          0       3499   main.o
       220         22          0          0          0       1973   misc.o
        36          8        236          0       1024        916   startup_stm32f10x_md.o
       860         38          0          0          0       5817   stm32f10x_gpio.o
        28          0          0          0          0       1361   stm32f10x_it.o
       932         36          0         20          0       9044   stm32f10x_rcc.o
      1032         22          0          0          0       8544   stm32f10x_usart.o
       480         38          0         20          0     229307   system_stm32f10x.o
      1060         50          0          5        140       4598   usart.o

    ----------------------------------------------------------------------
      5708        348        268         52       1168     271732   Object Totals
         0          0         32          0          0          0   (incl. Generated)
         0          0          0          1          4          0   (incl. Padding)

    ----------------------------------------------------------------------

      Code (inc. data)   RO Data    RW Data    ZI Data      Debug   Library Member Name

         0          0          0          0          0          0   entry.o
         0          0          0          0          0          0   entry10a.o
         0          0          0          0          0          0   entry11a.o
         8          4          0          0          0          0   entry2.o
         4          0          0          0          0          0   entry5.o
         0          0          0          0          0          0   entry7b.o
         0          0          0          0          0          0   entry8b.o
         8          4          0          0          0          0   entry9a.o
        30          0          0          0          0          0   handlers.o
        36          8          0          0          0         68   init.o
         0          0          0          0          0          0   iusefp.o
        30          0          0          0          0         68   llshl.o
        36          0          0          0          0         68   llsshr.o
        32          0          0          0          0         68   llushr.o
        36          0          0          0          0         68   memcpya.o
        36          0          0          0          0        108   memseta.o
      2226         90          0          0          0        444   printfa.o
         0          0          0          4          0          0   stdout.o
        44          0          0          0          0         80   uidiv.o
        98          0          0          0          0         92   uldiv.o
        48          0          0          0          0         68   cdrcmple.o
       334          0          0          0          0        148   dadd.o
       222          0          0          0          0        100   ddiv.o
       186          0          0          0          0        176   depilogue.o
        48          0          0          0          0         68   dfixul.o
       228          0          0          0          0         96   dmul.o
        38          0          0          0          0         68   f2d.o
       124          0          0          0          0         88   fdiv.o
       110          0          0          0          0        168   fepilogue.o
        18          0          0          0          0         68   fflti.o
        10          0          0          0          0         68   ffltui.o

    ----------------------------------------------------------------------
      3996        106          0          4          0       2180   Library Totals
         6          0          0          0          0          0   (incl. Padding)

    ----------------------------------------------------------------------

      Code (inc. data)   RO Data    RW Data    ZI Data      Debug   Library Name

      2624        106          0          4          0       1064   mc_w.l
      1366          0          0          0          0       1116   mf_w.l

    ----------------------------------------------------------------------
      3996        106          0          4          0       2180   Library Totals

    ----------------------------------------------------------------------

==============================================================================


      Code (inc. data)   RO Data    RW Data    ZI Data      Debug   

      9704        454        268         56       1168     272192   Grand Totals
      9704        454        268         56       1168     272192   ELF Image Totals
      9704        454        268         56          0          0   ROM Totals

==============================================================================

    Total RO  Size (Code + RO Data)                 9972 (   9.74kB)
    Total RW  Size (RW Data + ZI Data)              1224 (   1.20kB)
    Total ROM Size (Code + RO Data + RW Data)      10028 (   9.79kB)

==============================================================================

