Component: ARM Compiler 5.05 update 1 (build 106) Tool: armlink [4d0efa]

==============================================================================

Section Cross References

    system_stm32f10x.o(.text) refers to system_stm32f10x.o(.data) for SystemCoreClock
    startup_stm32f10x_md.o(RESET) refers to startup_stm32f10x_md.o(STACK) for __initial_sp
    startup_stm32f10x_md.o(RESET) refers to startup_stm32f10x_md.o(.text) for Reset_Handler
    startup_stm32f10x_md.o(RESET) refers to stm32f10x_it.o(.text) for NMI_Handler
    startup_stm32f10x_md.o(RESET) refers to timer.o(.text) for TIM2_IRQHandler
    startup_stm32f10x_md.o(RESET) refers to usart.o(.text) for USART1_IRQHandler
    startup_stm32f10x_md.o(.text) refers to system_stm32f10x.o(.text) for SystemInit
    startup_stm32f10x_md.o(.text) refers to entry.o(.ARM.Collect$$$$00000000) for __main
    stm32f10x_rcc.o(.text) refers to stm32f10x_rcc.o(.data) for APBAHBPrescTable
    stm32f10x_usart.o(.text) refers to stm32f10x_rcc.o(.text) for RCC_APB2PeriphResetCmd
    stm32f10x_gpio.o(.text) refers to stm32f10x_rcc.o(.text) for RCC_APB2PeriphResetCmd
    stm32f10x_tim.o(.text) refers to stm32f10x_rcc.o(.text) for RCC_APB2PeriphResetCmd
    usart.o(.text) refers to stm32f10x_rcc.o(.text) for RCC_APB2PeriphClockCmd
    usart.o(.text) refers to stm32f10x_gpio.o(.text) for GPIO_Init
    usart.o(.text) refers to stm32f10x_usart.o(.text) for USART_Init
    usart.o(.text) refers to misc.o(.text) for NVIC_Init
    usart.o(.text) refers to stm32f10x_tim.o(.text) for TIM_SetCounter
    usart.o(.text) refers to printfa.o(i.__0vsprintf) for vsprintf
==============================================================================

Removing Unused input sections from the image.

    Removing core_cm3.o(.emb_text), (32 bytes).
    Removing startup_stm32f10x_md.o(HEAP), (512 bytes).
    Removing sys.o(.text), (12 bytes).

3 unused section(s) (total 556 bytes) removed from the image.

==============================================================================

Image Symbol Table

    Local Symbols

    Symbol Name                              Value     Ov Type        Size  Object(Section)

    ../clib/microlib/ctype/ctype.c           0x00000000   Number         0  ctype_c.o ABSOLUTE
    ../clib/microlib/ctype/ctype.c           0x00000000   Number         0  isspace_c.o ABSOLUTE
    ../clib/microlib/division.c              0x00000000   Number         0  uldiv.o ABSOLUTE
    ../clib/microlib/division.c              0x00000000   Number         0  uidiv.o ABSOLUTE
    ../clib/microlib/errno.c                 0x00000000   Number         0  errno.o ABSOLUTE
    ../clib/microlib/init/entry.s            0x00000000   Number         0  entry8b.o ABSOLUTE
    ../clib/microlib/init/entry.s            0x00000000   Number         0  entry9a.o ABSOLUTE
    ../clib/microlib/init/entry.s            0x00000000   Number         0  entry9b.o ABSOLUTE
    ../clib/microlib/init/entry.s            0x00000000   Number         0  entry10a.o ABSOLUTE
    ../clib/microlib/init/entry.s            0x00000000   Number         0  entry10b.o ABSOLUTE
    ../clib/microlib/init/entry.s            0x00000000   Number         0  entry11a.o ABSOLUTE
    ../clib/microlib/init/entry.s            0x00000000   Number         0  entry11b.o ABSOLUTE
    ../clib/microlib/init/entry.s            0x00000000   Number         0  entry8a.o ABSOLUTE
    ../clib/microlib/init/entry.s            0x00000000   Number         0  entry.o ABSOLUTE
    ../clib/microlib/init/entry.s            0x00000000   Number         0  entry2.o ABSOLUTE
    ../clib/microlib/init/entry.s            0x00000000   Number         0  entry5.o ABSOLUTE
    ../clib/microlib/init/entry.s            0x00000000   Number         0  entry7a.o ABSOLUTE
    ../clib/microlib/init/entry.s            0x00000000   Number         0  entry7b.o ABSOLUTE
    ../clib/microlib/longlong.c              0x00000000   Number         0  llsshr.o ABSOLUTE
    ../clib/microlib/longlong.c              0x00000000   Number         0  llushr.o ABSOLUTE
    ../clib/microlib/longlong.c              0x00000000   Number         0  llshl.o ABSOLUTE
    ../clib/microlib/printf/printf.c         0x00000000   Number         0  printfb.o ABSOLUTE
    ../clib/microlib/printf/printf.c         0x00000000   Number         0  printf0.o ABSOLUTE
    ../clib/microlib/printf/printf.c         0x00000000   Number         0  printf1.o ABSOLUTE
    ../clib/microlib/printf/printf.c         0x00000000   Number         0  printf2.o ABSOLUTE
    ../clib/microlib/printf/printf.c         0x00000000   Number         0  printf3.o ABSOLUTE
    ../clib/microlib/printf/printf.c         0x00000000   Number         0  printf4.o ABSOLUTE
    ../clib/microlib/printf/printf.c         0x00000000   Number         0  printf5.o ABSOLUTE
    ../clib/microlib/printf/printf.c         0x00000000   Number         0  printf6.o ABSOLUTE
    ../clib/microlib/printf/printf.c         0x00000000   Number         0  printf7.o ABSOLUTE
    ../clib/microlib/printf/printf.c         0x00000000   Number         0  printf8.o ABSOLUTE
    ../clib/microlib/printf/printf.c         0x00000000   Number         0  printfa.o ABSOLUTE
    ../clib/microlib/printf/stubs.s          0x00000000   Number         0  stubs.o ABSOLUTE
    ../clib/microlib/string/memcpy.c         0x00000000   Number         0  memcpyb.o ABSOLUTE
    ../clib/microlib/string/memcpy.c         0x00000000   Number         0  memcpya.o ABSOLUTE
    ../clib/microlib/string/memset.c         0x00000000   Number         0  memseta.o ABSOLUTE
    ../clib/microlib/string/strcat.c         0x00000000   Number         0  strcat.o ABSOLUTE
    ../clib/microlib/string/strcpy.c         0x00000000   Number         0  strcpy.o ABSOLUTE
    ../clib/microlib/string/strlen.c         0x00000000   Number         0  strlen.o ABSOLUTE
    ../clib/microlib/string/strstr.c         0x00000000   Number         0  strstr.o ABSOLUTE
    ../clib/microlib/stubs.s                 0x00000000   Number         0  iusefp.o ABSOLUTE
    ../clib/microlib/stubs.s                 0x00000000   Number         0  useno.o ABSOLUTE
    ../clib/scanf.c                          0x00000000   Number         0  _sgetc.o ABSOLUTE
    ../clib/scanf.c                          0x00000000   Number         0  strtod.o ABSOLUTE
    ../clib/scanf.c                          0x00000000   Number         0  scanf_fp.o ABSOLUTE
    ../fplib/microlib/d2f.c                  0x00000000   Number         0  d2f.o ABSOLUTE
    ../fplib/microlib/f2d.c                  0x00000000   Number         0  f2d.o ABSOLUTE
    ../fplib/microlib/fpadd.c                0x00000000   Number         0  dadd.o ABSOLUTE
    ../fplib/microlib/fpadd.c                0x00000000   Number         0  fadd.o ABSOLUTE
    ../fplib/microlib/fpdiv.c                0x00000000   Number         0  ddiv.o ABSOLUTE
    ../fplib/microlib/fpepilogue.c           0x00000000   Number         0  depilogue.o ABSOLUTE
    ../fplib/microlib/fpepilogue.c           0x00000000   Number         0  fepilogue.o ABSOLUTE
    ../fplib/microlib/fpfix.c                0x00000000   Number         0  dfixui.o ABSOLUTE
    ../fplib/microlib/fpfix.c                0x00000000   Number         0  dfixi.o ABSOLUTE
    ../fplib/microlib/fpfix.c                0x00000000   Number         0  ffixui.o ABSOLUTE
    ../fplib/microlib/fpfix.c                0x00000000   Number         0  ffixi.o ABSOLUTE
    ../fplib/microlib/fpfix.c                0x00000000   Number         0  dfixul.o ABSOLUTE
    ../fplib/microlib/fpflt.c                0x00000000   Number         0  dfltui.o ABSOLUTE
    ../fplib/microlib/fpflt.c                0x00000000   Number         0  dflti.o ABSOLUTE
    ../fplib/microlib/fpflt.c                0x00000000   Number         0  fflti.o ABSOLUTE
    ../fplib/microlib/fpflt.c                0x00000000   Number         0  ffltui.o ABSOLUTE
    ../fplib/microlib/fpflt.c                0x00000000   Number         0  dfltul.o ABSOLUTE
    ../fplib/microlib/fpmul.c                0x00000000   Number         0  dmul.o ABSOLUTE
    ../fplib/microlib/fpmul.c                0x00000000   Number         0  fmul.o ABSOLUTE
    ../fplib/microlib/fpscalb.c              0x00000000   Number         0  dscalb.o ABSOLUTE
    ../fplib/microlib/fpsqrt.c               0x00000000   Number         0  dsqrt.o ABSOLUTE
    ../mathlib/atof.c                        0x00000000   Number         0  atof.o ABSOLUTE
    ../mathlib/dunder.c                      0x00000000   Number         0  dunder.o ABSOLUTE
    ../mathlib/fpclassify.c                  0x00000000   Number         0  fpclassify.o ABSOLUTE
    ../mathlib/poly.c                        0x00000000   Number         0  poly.o ABSOLUTE
    ../mathlib/pow.c                         0x00000000   Number         0  pow_x.o ABSOLUTE
    ../mathlib/pow.c                         0x00000000   Number         0  pow.o ABSOLUTE
    ../mathlib/qnan.c                        0x00000000   Number         0  qnan.o ABSOLUTE
    ../mathlib/sqrt.c                        0x00000000   Number         0  sqrt_x.o ABSOLUTE
    ../mathlib/sqrt.c                        0x00000000   Number         0  sqrt.o ABSOLUTE
    ..\Libraries\CMSIS\CM3\CoreSupport\core_cm3.c 0x00000000   Number         0  core_cm3.o ABSOLUTE
    ..\Libraries\CMSIS\CM3\DeviceSupport\ST\STM32F10x\startup\arm\startup_stm32f10x_md.s 0x00000000   Number         0  startup_stm32f10x_md.o ABSOLUTE
    ..\Libraries\CMSIS\CM3\DeviceSupport\ST\STM32F10x\system_stm32f10x.c 0x00000000   Number         0  system_stm32f10x.o ABSOLUTE
    ..\Libraries\STM32F10x_StdPeriph_Driver\src\misc.c 0x00000000   Number         0  misc.o ABSOLUTE
    ..\Libraries\STM32F10x_StdPeriph_Driver\src\stm32f10x_gpio.c 0x00000000   Number         0  stm32f10x_gpio.o ABSOLUTE
    ..\Libraries\STM32F10x_StdPeriph_Driver\src\stm32f10x_rcc.c 0x00000000   Number         0  stm32f10x_rcc.o ABSOLUTE
    ..\Libraries\STM32F10x_StdPeriph_Driver\src\stm32f10x_tim.c 0x00000000   Number         0  stm32f10x_tim.o ABSOLUTE
    ..\Libraries\STM32F10x_StdPeriph_Driver\src\stm32f10x_usart.c 0x00000000   Number         0  stm32f10x_usart.o ABSOLUTE
    ..\Peripherals\DATAPROCESS\dataprocess.c 0x00000000   Number         0  dataprocess.o ABSOLUTE
    ..\Peripherals\DATAPROCESS\malloc.c      0x00000000   Number         0  malloc.o ABSOLUTE
    ..\Peripherals\SIM800C\sim800c.c         0x00000000   Number         0  sim800c.o ABSOLUTE
    ..\Peripherals\TIMER\timer.c             0x00000000   Number         0  timer.o ABSOLUTE
    ..\Peripherals\src\delay.c               0x00000000   Number         0  delay.o ABSOLUTE
    ..\Peripherals\src\led.c                 0x00000000   Number         0  led.o ABSOLUTE
    ..\Peripherals\src\stm32f10x_it.c        0x00000000   Number         0  stm32f10x_it.o ABSOLUTE
    ..\Peripherals\src\sys.c                 0x00000000   Number         0  sys.o ABSOLUTE
    ..\Peripherals\src\usart.c               0x00000000   Number         0  usart.o ABSOLUTE
    ..\\Libraries\\CMSIS\\CM3\\CoreSupport\\core_cm3.c 0x00000000   Number         0  core_cm3.o ABSOLUTE
    cdcmple.s                                0x00000000   Number         0  cdcmple.o ABSOLUTE
    cdrcmple.s                               0x00000000   Number         0  cdrcmple.o ABSOLUTE
    cfcmple.s                                0x00000000   Number         0  cfcmple.o ABSOLUTE
    cfrcmple.s                               0x00000000   Number         0  cfrcmple.o ABSOLUTE
    dc.s                                     0x00000000   Number         0  dc.o ABSOLUTE
    handlers.s                               0x00000000   Number         0  handlers.o ABSOLUTE
    init.s                                   0x00000000   Number         0  init.o ABSOLUTE
    main.c                                   0x00000000   Number         0  main.o ABSOLUTE
    RESET                                    0x08000000   Section      236  startup_stm32f10x_md.o(RESET)
    .ARM.Collect$$$$00000000                 0x080000ec   Section        0  entry.o(.ARM.Collect$$$$00000000)
    .ARM.Collect$$$$00000001                 0x080000ec   Section        4  entry2.o(.ARM.Collect$$$$00000001)
    .ARM.Collect$$$$00000004                 0x080000f0   Section        4  entry5.o(.ARM.Collect$$$$00000004)
    .ARM.Collect$$$$00000008                 0x080000f4   Section        0  entry7b.o(.ARM.Collect$$$$00000008)
    .ARM.Collect$$$$0000000A                 0x080000f4   Section        0  entry8b.o(.ARM.Collect$$$$0000000A)
    .ARM.Collect$$$$0000000B                 0x080000f4   Section        8  entry9a.o(.ARM.Collect$$$$0000000B)
    .ARM.Collect$$$$0000000D                 0x080000fc   Section        0  entry10a.o(.ARM.Collect$$$$0000000D)
    .ARM.Collect$$$$0000000F                 0x080000fc   Section        0  entry11a.o(.ARM.Collect$$$$0000000F)
    .ARM.Collect$$$$00002712                 0x080000fc   Section        4  entry2.o(.ARM.Collect$$$$00002712)
    __lit__00000000                          0x080000fc   Data           4  entry2.o(.ARM.Collect$$$$00002712)
    .text                                    0x08000100   Section        0  system_stm32f10x.o(.text)
    SetSysClockTo72                          0x08000101   Thumb Code   214  system_stm32f10x.o(.text)
    SetSysClock                              0x080001d7   Thumb Code     8  system_stm32f10x.o(.text)
    .text                                    0x080002e0   Section       36  startup_stm32f10x_md.o(.text)
    .text                                    0x08000304   Section        0  stm32f10x_rcc.o(.text)
    .text                                    0x080006a8   Section        0  stm32f10x_usart.o(.text)
    .text                                    0x08000ab0   Section        0  stm32f10x_gpio.o(.text)
    .text                                    0x08000e0c   Section        0  misc.o(.text)
    .text                                    0x08000ee8   Section        0  stm32f10x_tim.o(.text)
    TI4_Config                               0x0800138f   Thumb Code   130  stm32f10x_tim.o(.text)
    TI3_Config                               0x08001423   Thumb Code   122  stm32f10x_tim.o(.text)
    TI2_Config                               0x080014b7   Thumb Code   130  stm32f10x_tim.o(.text)
    TI1_Config                               0x0800154b   Thumb Code   108  stm32f10x_tim.o(.text)
    .text                                    0x08001d04   Section        0  usart.o(.text)
    .text                                    0x08002118   Section        0  delay.o(.text)
    .text                                    0x080021c4   Section        0  stm32f10x_it.o(.text)
    .text                                    0x080021e0   Section        0  led.o(.text)
    .text                                    0x0800229c   Section        0  sim800c.o(.text)
    .text                                    0x08003e98   Section        0  timer.o(.text)
    .text                                    0x08003fa0   Section        0  malloc.o(.text)
    .text                                    0x080041cc   Section        0  dataprocess.o(.text)
    .text                                    0x08004684   Section        0  main.o(.text)
    .text                                    0x08004db8   Section        0  memcpya.o(.text)
    .text                                    0x08004ddc   Section        0  memseta.o(.text)
    .text                                    0x08004e00   Section        0  strcat.o(.text)
    .text                                    0x08004e18   Section        0  strstr.o(.text)
    .text                                    0x08004e3c   Section        0  strlen.o(.text)
    .text                                    0x08004e4a   Section        0  strcpy.o(.text)
    .text                                    0x08004e5c   Section        0  fadd.o(.text)
    .text                                    0x08004f0c   Section        0  fmul.o(.text)
    .text                                    0x08004f70   Section        0  dadd.o(.text)
    .text                                    0x080050be   Section        0  dmul.o(.text)
    .text                                    0x080051a2   Section        0  ddiv.o(.text)
    .text                                    0x08005280   Section        0  fflti.o(.text)
    .text                                    0x08005292   Section        0  ffltui.o(.text)
    .text                                    0x0800529c   Section        0  dflti.o(.text)
    .text                                    0x080052be   Section        0  dfltui.o(.text)
    .text                                    0x080052d8   Section        0  ffixi.o(.text)
    .text                                    0x0800530a   Section        0  ffixui.o(.text)
    .text                                    0x08005332   Section        0  dfixi.o(.text)
    .text                                    0x08005370   Section        0  dfixui.o(.text)
    .text                                    0x080053a2   Section        0  f2d.o(.text)
    .text                                    0x080053c8   Section       48  cdcmple.o(.text)
    .text                                    0x080053f8   Section       20  cfcmple.o(.text)
    .text                                    0x0800540c   Section       20  cfrcmple.o(.text)
    .text                                    0x08005420   Section        0  uidiv.o(.text)
    .text                                    0x0800544c   Section        0  uldiv.o(.text)
    .text                                    0x080054ae   Section        0  llshl.o(.text)
    .text                                    0x080054cc   Section        0  llushr.o(.text)
    .text                                    0x080054ec   Section        0  llsshr.o(.text)
    .text                                    0x08005510   Section        0  strtod.o(.text)
    _local_sscanf                            0x08005511   Thumb Code    54  strtod.o(.text)
    .text                                    0x080055ac   Section        0  fepilogue.o(.text)
    .text                                    0x080055ac   Section        0  iusefp.o(.text)
    .text                                    0x0800561a   Section        0  depilogue.o(.text)
    .text                                    0x080056d4   Section        0  dscalb.o(.text)
    .text                                    0x08005702   Section        0  dfixul.o(.text)
    .text                                    0x08005734   Section       48  cdrcmple.o(.text)
    .text                                    0x08005764   Section       36  init.o(.text)
    .text                                    0x08005788   Section        0  isspace_c.o(.text)
    .text                                    0x08005794   Section        0  scanf_fp.o(.text)
    _fp_value                                0x08005795   Thumb Code   256  scanf_fp.o(.text)
    .text                                    0x08005acc   Section        0  _sgetc.o(.text)
    .text                                    0x08005b0c   Section        0  dsqrt.o(.text)
    .text                                    0x08005bb0   Section        0  ctype_c.o(.text)
    .text                                    0x08005bd8   Section        0  dfltul.o(.text)
    .text                                    0x08005bf0   Section        0  d2f.o(.text)
    i.__0printf                              0x08005c28   Section        0  printfa.o(i.__0printf)
    i.__0sprintf                             0x08005c48   Section        0  printfa.o(i.__0sprintf)
    i.__0vsprintf                            0x08005c70   Section        0  printfa.o(i.__0vsprintf)
    i.__ARM_fpclassify                       0x08005c94   Section        0  fpclassify.o(i.__ARM_fpclassify)
    i.__kernel_poly                          0x08005cbc   Section        0  poly.o(i.__kernel_poly)
    i.__mathlib_dbl_divzero                  0x08005d68   Section        0  dunder.o(i.__mathlib_dbl_divzero)
    i.__mathlib_dbl_infnan2                  0x08005d78   Section        0  dunder.o(i.__mathlib_dbl_infnan2)
    i.__mathlib_dbl_invalid                  0x08005d7c   Section        0  dunder.o(i.__mathlib_dbl_invalid)
    i.__mathlib_dbl_overflow                 0x08005d88   Section        0  dunder.o(i.__mathlib_dbl_overflow)
    i.__mathlib_dbl_underflow                0x08005d98   Section        0  dunder.o(i.__mathlib_dbl_underflow)
    i.__read_errno                           0x08005da8   Section        0  errno.o(i.__read_errno)
    i.__scatterload_copy                     0x08005db4   Section       14  handlers.o(i.__scatterload_copy)
    i.__scatterload_null                     0x08005dc2   Section        2  handlers.o(i.__scatterload_null)
    i.__scatterload_zeroinit                 0x08005dc4   Section       14  handlers.o(i.__scatterload_zeroinit)
    i.__set_errno                            0x08005dd4   Section        0  errno.o(i.__set_errno)
    i._fp_digits                             0x08005de0   Section        0  printfa.o(i._fp_digits)
    _fp_digits                               0x08005de1   Thumb Code   334  printfa.o(i._fp_digits)
    i._is_digit                              0x08005f44   Section        0  scanf_fp.o(i._is_digit)
    i._printf_core                           0x08005f54   Section        0  printfa.o(i._printf_core)
    _printf_core                             0x08005f55   Thumb Code  1744  printfa.o(i._printf_core)
    i._printf_post_padding                   0x08006630   Section        0  printfa.o(i._printf_post_padding)
    _printf_post_padding                     0x08006631   Thumb Code    36  printfa.o(i._printf_post_padding)
    i._printf_pre_padding                    0x08006654   Section        0  printfa.o(i._printf_pre_padding)
    _printf_pre_padding                      0x08006655   Thumb Code    46  printfa.o(i._printf_pre_padding)
    i._sputc                                 0x08006682   Section        0  printfa.o(i._sputc)
    _sputc                                   0x08006683   Thumb Code    10  printfa.o(i._sputc)
    i.atof                                   0x0800668c   Section        0  atof.o(i.atof)
    i.pow                                    0x080066b8   Section        0  pow.o(i.pow)
    i.sqrt                                   0x08007070   Section        0  sqrt.o(i.sqrt)
    .constdata                               0x080070bc   Section       12  malloc.o(.constdata)
    .constdata                               0x080070c8   Section      136  pow.o(.constdata)
    bp                                       0x080070c8   Data          16  pow.o(.constdata)
    dp_h                                     0x080070d8   Data          16  pow.o(.constdata)
    dp_l                                     0x080070e8   Data          16  pow.o(.constdata)
    L                                        0x080070f8   Data          48  pow.o(.constdata)
    P                                        0x08007128   Data          40  pow.o(.constdata)
    .constdata                               0x08007150   Section        8  qnan.o(.constdata)
    .constdata                               0x08007158   Section       64  ctype_c.o(.constdata)
    .conststring                             0x08007198   Section       68  sim800c.o(.conststring)
    .conststring                             0x080071dc   Section       70  main.o(.conststring)
    .data                                    0x20000000   Section       20  system_stm32f10x.o(.data)
    .data                                    0x20000014   Section       20  stm32f10x_rcc.o(.data)
    APBAHBPrescTable                         0x20000014   Data          16  stm32f10x_rcc.o(.data)
    ADCPrescTable                            0x20000024   Data           4  stm32f10x_rcc.o(.data)
    .data                                    0x20000028   Section       12  usart.o(.data)
    .data                                    0x20000034   Section        4  delay.o(.data)
    Times_us                                 0x20000034   Data           1  delay.o(.data)
    Times_ms                                 0x20000036   Data           2  delay.o(.data)
    .data                                    0x20000038   Section      152  sim800c.o(.data)
    timex                                    0x200000c8   Data           2  sim800c.o(.data)
    connectsta                               0x200000ca   Data           1  sim800c.o(.data)
    hbeaterrcnt                              0x200000cb   Data           1  sim800c.o(.data)
    oldsta                                   0x200000cc   Data           1  sim800c.o(.data)
    cnt                                      0x200000ce   Data           2  sim800c.o(.data)
    .data                                    0x200000d0   Section        2  timer.o(.data)
    i                                        0x200000d1   Data           1  timer.o(.data)
    .data                                    0x200000d4   Section       20  malloc.o(.data)
    .data                                    0x200000e8   Section        6  main.o(.data)
    cnt                                      0x200000ed   Data           1  main.o(.data)
    .data                                    0x200000f0   Section        4  errno.o(.data)
    _errno                                   0x200000f0   Data           4  errno.o(.data)
    .bss                                     0x200000f4   Section      600  usart.o(.bss)
    .bss                                     0x2000034c   Section      400  sim800c.o(.bss)
    .bss                                     0x200004e0   Section    10880  malloc.o(.bss)
    .bss                                     0x20002f60   Section      312  main.o(.bss)
    STACK                                    0x20003098   Section     1024  startup_stm32f10x_md.o(STACK)

    Global Symbols

    Symbol Name                              Value     Ov Type        Size  Object(Section)

    BuildAttributes$$THM_ISAv4$P$D$K$B$S$PE$A:L22UL41UL21$X:L11$S22US41US21$IEEE1$IW$USESV6$~STKCKD$USESV7$~SHL$OTIME$ROPI$IEEEX$EBA8$MICROLIB$REQ8$PRES8$EABIv2 0x00000000   Number         0  anon$$obj.o ABSOLUTE
    __ARM_use_no_argv                        0x00000000   Number         0  main.o ABSOLUTE
    __use_no_errno                           0x00000000   Number         0  useno.o ABSOLUTE
    __use_no_exception_handling              0x00000000   Number         0  useno.o ABSOLUTE
    __use_no_fp                              0x00000000   Number         0  useno.o ABSOLUTE
    __use_no_heap                            0x00000000   Number         0  useno.o ABSOLUTE
    __use_no_heap_region                     0x00000000   Number         0  useno.o ABSOLUTE
    __use_no_semihosting                     0x00000000   Number         0  useno.o ABSOLUTE
    __use_no_semihosting_swi                 0x00000000   Number         0  useno.o ABSOLUTE
    __use_no_signal_handling                 0x00000000   Number         0  useno.o ABSOLUTE
    _printf_a                                0x00000000   Number         0  stubs.o ABSOLUTE
    _printf_c                                0x00000000   Number         0  stubs.o ABSOLUTE
    _printf_charcount                        0x00000000   Number         0  stubs.o ABSOLUTE
    _printf_d                                0x00000000   Number         0  stubs.o ABSOLUTE
    _printf_e                                0x00000000   Number         0  stubs.o ABSOLUTE
    _printf_f                                0x00000000   Number         0  stubs.o ABSOLUTE
    _printf_flags                            0x00000000   Number         0  stubs.o ABSOLUTE
    _printf_fp_dec                           0x00000000   Number         0  stubs.o ABSOLUTE
    _printf_fp_hex                           0x00000000   Number         0  stubs.o ABSOLUTE
    _printf_g                                0x00000000   Number         0  stubs.o ABSOLUTE
    _printf_i                                0x00000000   Number         0  stubs.o ABSOLUTE
    _printf_int_dec                          0x00000000   Number         0  stubs.o ABSOLUTE
    _printf_l                                0x00000000   Number         0  stubs.o ABSOLUTE
    _printf_lc                               0x00000000   Number         0  stubs.o ABSOLUTE
    _printf_ll                               0x00000000   Number         0  stubs.o ABSOLUTE
    _printf_lld                              0x00000000   Number         0  stubs.o ABSOLUTE
    _printf_lli                              0x00000000   Number         0  stubs.o ABSOLUTE
    _printf_llo                              0x00000000   Number         0  stubs.o ABSOLUTE
    _printf_llu                              0x00000000   Number         0  stubs.o ABSOLUTE
    _printf_llx                              0x00000000   Number         0  stubs.o ABSOLUTE
    _printf_longlong_dec                     0x00000000   Number         0  stubs.o ABSOLUTE
    _printf_longlong_hex                     0x00000000   Number         0  stubs.o ABSOLUTE
    _printf_longlong_oct                     0x00000000   Number         0  stubs.o ABSOLUTE
    _printf_ls                               0x00000000   Number         0  stubs.o ABSOLUTE
    _printf_mbtowc                           0x00000000   Number         0  stubs.o ABSOLUTE
    _printf_n                                0x00000000   Number         0  stubs.o ABSOLUTE
    _printf_o                                0x00000000   Number         0  stubs.o ABSOLUTE
    _printf_p                                0x00000000   Number         0  stubs.o ABSOLUTE
    _printf_percent                          0x00000000   Number         0  stubs.o ABSOLUTE
    _printf_pre_padding                      0x00000000   Number         0  stubs.o ABSOLUTE
    _printf_return_value                     0x00000000   Number         0  stubs.o ABSOLUTE
    _printf_s                                0x00000000   Number         0  stubs.o ABSOLUTE
    _printf_sizespec                         0x00000000   Number         0  stubs.o ABSOLUTE
    _printf_str                              0x00000000   Number         0  stubs.o ABSOLUTE
    _printf_truncate_signed                  0x00000000   Number         0  stubs.o ABSOLUTE
    _printf_truncate_unsigned                0x00000000   Number         0  stubs.o ABSOLUTE
    _printf_u                                0x00000000   Number         0  stubs.o ABSOLUTE
    _printf_wc                               0x00000000   Number         0  stubs.o ABSOLUTE
    _printf_wctomb                           0x00000000   Number         0  stubs.o ABSOLUTE
    _printf_widthprec                        0x00000000   Number         0  stubs.o ABSOLUTE
    _printf_x                                0x00000000   Number         0  stubs.o ABSOLUTE
    __cpp_initialize__aeabi_                  - Undefined Weak Reference
    __cxa_finalize                            - Undefined Weak Reference
    __decompress                              - Undefined Weak Reference
    _clock_init                               - Undefined Weak Reference
    _microlib_exit                            - Undefined Weak Reference
    __Vectors_Size                           0x000000ec   Number         0  startup_stm32f10x_md.o ABSOLUTE
    __Vectors                                0x08000000   Data           4  startup_stm32f10x_md.o(RESET)
    __Vectors_End                            0x080000ec   Data           0  startup_stm32f10x_md.o(RESET)
    __main                                   0x080000ed   Thumb Code     0  entry.o(.ARM.Collect$$$$00000000)
    _main_stk                                0x080000ed   Thumb Code     0  entry2.o(.ARM.Collect$$$$00000001)
    _main_scatterload                        0x080000f1   Thumb Code     0  entry5.o(.ARM.Collect$$$$00000004)
    __main_after_scatterload                 0x080000f5   Thumb Code     0  entry5.o(.ARM.Collect$$$$00000004)
    _main_clock                              0x080000f5   Thumb Code     0  entry7b.o(.ARM.Collect$$$$00000008)
    _main_cpp_init                           0x080000f5   Thumb Code     0  entry8b.o(.ARM.Collect$$$$0000000A)
    _main_init                               0x080000f5   Thumb Code     0  entry9a.o(.ARM.Collect$$$$0000000B)
    __rt_final_cpp                           0x080000fd   Thumb Code     0  entry10a.o(.ARM.Collect$$$$0000000D)
    __rt_final_exit                          0x080000fd   Thumb Code     0  entry11a.o(.ARM.Collect$$$$0000000F)
    SystemInit                               0x080001df   Thumb Code    78  system_stm32f10x.o(.text)
    SystemCoreClockUpdate                    0x0800022d   Thumb Code   142  system_stm32f10x.o(.text)
    Reset_Handler                            0x080002e1   Thumb Code     8  startup_stm32f10x_md.o(.text)
    ADC1_2_IRQHandler                        0x080002fb   Thumb Code     0  startup_stm32f10x_md.o(.text)
    CAN1_RX1_IRQHandler                      0x080002fb   Thumb Code     0  startup_stm32f10x_md.o(.text)
    CAN1_SCE_IRQHandler                      0x080002fb   Thumb Code     0  startup_stm32f10x_md.o(.text)
    DMA1_Channel1_IRQHandler                 0x080002fb   Thumb Code     0  startup_stm32f10x_md.o(.text)
    DMA1_Channel2_IRQHandler                 0x080002fb   Thumb Code     0  startup_stm32f10x_md.o(.text)
    DMA1_Channel3_IRQHandler                 0x080002fb   Thumb Code     0  startup_stm32f10x_md.o(.text)
    DMA1_Channel4_IRQHandler                 0x080002fb   Thumb Code     0  startup_stm32f10x_md.o(.text)
    DMA1_Channel5_IRQHandler                 0x080002fb   Thumb Code     0  startup_stm32f10x_md.o(.text)
    DMA1_Channel6_IRQHandler                 0x080002fb   Thumb Code     0  startup_stm32f10x_md.o(.text)
    DMA1_Channel7_IRQHandler                 0x080002fb   Thumb Code     0  startup_stm32f10x_md.o(.text)
    EXTI0_IRQHandler                         0x080002fb   Thumb Code     0  startup_stm32f10x_md.o(.text)
    EXTI15_10_IRQHandler                     0x080002fb   Thumb Code     0  startup_stm32f10x_md.o(.text)
    EXTI1_IRQHandler                         0x080002fb   Thumb Code     0  startup_stm32f10x_md.o(.text)
    EXTI2_IRQHandler                         0x080002fb   Thumb Code     0  startup_stm32f10x_md.o(.text)
    EXTI3_IRQHandler                         0x080002fb   Thumb Code     0  startup_stm32f10x_md.o(.text)
    EXTI4_IRQHandler                         0x080002fb   Thumb Code     0  startup_stm32f10x_md.o(.text)
    FLASH_IRQHandler                         0x080002fb   Thumb Code     0  startup_stm32f10x_md.o(.text)
    I2C1_ER_IRQHandler                       0x080002fb   Thumb Code     0  startup_stm32f10x_md.o(.text)
    I2C1_EV_IRQHandler                       0x080002fb   Thumb Code     0  startup_stm32f10x_md.o(.text)
    I2C2_ER_IRQHandler                       0x080002fb   Thumb Code     0  startup_stm32f10x_md.o(.text)
    I2C2_EV_IRQHandler                       0x080002fb   Thumb Code     0  startup_stm32f10x_md.o(.text)
    PVD_IRQHandler                           0x080002fb   Thumb Code     0  startup_stm32f10x_md.o(.text)
    RCC_IRQHandler                           0x080002fb   Thumb Code     0  startup_stm32f10x_md.o(.text)
    RTCAlarm_IRQHandler                      0x080002fb   Thumb Code     0  startup_stm32f10x_md.o(.text)
    RTC_IRQHandler                           0x080002fb   Thumb Code     0  startup_stm32f10x_md.o(.text)
    SPI1_IRQHandler                          0x080002fb   Thumb Code     0  startup_stm32f10x_md.o(.text)
    SPI2_IRQHandler                          0x080002fb   Thumb Code     0  startup_stm32f10x_md.o(.text)
    TAMPER_IRQHandler                        0x080002fb   Thumb Code     0  startup_stm32f10x_md.o(.text)
    TIM1_BRK_IRQHandler                      0x080002fb   Thumb Code     0  startup_stm32f10x_md.o(.text)
    TIM1_CC_IRQHandler                       0x080002fb   Thumb Code     0  startup_stm32f10x_md.o(.text)
    TIM1_TRG_COM_IRQHandler                  0x080002fb   Thumb Code     0  startup_stm32f10x_md.o(.text)
    TIM1_UP_IRQHandler                       0x080002fb   Thumb Code     0  startup_stm32f10x_md.o(.text)
    TIM3_IRQHandler                          0x080002fb   Thumb Code     0  startup_stm32f10x_md.o(.text)
    TIM4_IRQHandler                          0x080002fb   Thumb Code     0  startup_stm32f10x_md.o(.text)
    USBWakeUp_IRQHandler                     0x080002fb   Thumb Code     0  startup_stm32f10x_md.o(.text)
    USB_HP_CAN1_TX_IRQHandler                0x080002fb   Thumb Code     0  startup_stm32f10x_md.o(.text)
    USB_LP_CAN1_RX0_IRQHandler               0x080002fb   Thumb Code     0  startup_stm32f10x_md.o(.text)
    WWDG_IRQHandler                          0x080002fb   Thumb Code     0  startup_stm32f10x_md.o(.text)
    RCC_DeInit                               0x08000305   Thumb Code    64  stm32f10x_rcc.o(.text)
    RCC_HSEConfig                            0x08000345   Thumb Code    70  stm32f10x_rcc.o(.text)
    RCC_GetFlagStatus                        0x0800038b   Thumb Code    56  stm32f10x_rcc.o(.text)
    RCC_WaitForHSEStartUp                    0x080003c3   Thumb Code    56  stm32f10x_rcc.o(.text)
    RCC_AdjustHSICalibrationValue            0x080003fb   Thumb Code    20  stm32f10x_rcc.o(.text)
    RCC_HSICmd                               0x0800040f   Thumb Code     6  stm32f10x_rcc.o(.text)
    RCC_PLLConfig                            0x08000415   Thumb Code    24  stm32f10x_rcc.o(.text)
    RCC_PLLCmd                               0x0800042d   Thumb Code     6  stm32f10x_rcc.o(.text)
    RCC_SYSCLKConfig                         0x08000433   Thumb Code    18  stm32f10x_rcc.o(.text)
    RCC_GetSYSCLKSource                      0x08000445   Thumb Code    10  stm32f10x_rcc.o(.text)
    RCC_HCLKConfig                           0x0800044f   Thumb Code    18  stm32f10x_rcc.o(.text)
    RCC_PCLK1Config                          0x08000461   Thumb Code    18  stm32f10x_rcc.o(.text)
    RCC_PCLK2Config                          0x08000473   Thumb Code    20  stm32f10x_rcc.o(.text)
    RCC_ITConfig                             0x08000487   Thumb Code    26  stm32f10x_rcc.o(.text)
    RCC_USBCLKConfig                         0x080004a1   Thumb Code     8  stm32f10x_rcc.o(.text)
    RCC_ADCCLKConfig                         0x080004a9   Thumb Code    18  stm32f10x_rcc.o(.text)
    RCC_LSEConfig                            0x080004bb   Thumb Code    50  stm32f10x_rcc.o(.text)
    RCC_LSICmd                               0x080004ed   Thumb Code     6  stm32f10x_rcc.o(.text)
    RCC_RTCCLKConfig                         0x080004f3   Thumb Code    12  stm32f10x_rcc.o(.text)
    RCC_RTCCLKCmd                            0x080004ff   Thumb Code     8  stm32f10x_rcc.o(.text)
    RCC_GetClocksFreq                        0x08000507   Thumb Code   192  stm32f10x_rcc.o(.text)
    RCC_AHBPeriphClockCmd                    0x080005c7   Thumb Code    26  stm32f10x_rcc.o(.text)
    RCC_APB2PeriphClockCmd                   0x080005e1   Thumb Code    26  stm32f10x_rcc.o(.text)
    RCC_APB1PeriphClockCmd                   0x080005fb   Thumb Code    26  stm32f10x_rcc.o(.text)
    RCC_APB2PeriphResetCmd                   0x08000615   Thumb Code    26  stm32f10x_rcc.o(.text)
    RCC_APB1PeriphResetCmd                   0x0800062f   Thumb Code    26  stm32f10x_rcc.o(.text)
    RCC_BackupResetCmd                       0x08000649   Thumb Code     8  stm32f10x_rcc.o(.text)
    RCC_ClockSecuritySystemCmd               0x08000651   Thumb Code     6  stm32f10x_rcc.o(.text)
    RCC_MCOConfig                            0x08000657   Thumb Code     6  stm32f10x_rcc.o(.text)
    RCC_ClearFlag                            0x0800065d   Thumb Code    14  stm32f10x_rcc.o(.text)
    RCC_GetITStatus                          0x0800066b   Thumb Code    20  stm32f10x_rcc.o(.text)
    RCC_ClearITPendingBit                    0x0800067f   Thumb Code     6  stm32f10x_rcc.o(.text)
    USART_DeInit                             0x080006a9   Thumb Code   134  stm32f10x_usart.o(.text)
    USART_Init                               0x0800072f   Thumb Code   210  stm32f10x_usart.o(.text)
    USART_StructInit                         0x08000801   Thumb Code    24  stm32f10x_usart.o(.text)
    USART_ClockInit                          0x08000819   Thumb Code    34  stm32f10x_usart.o(.text)
    USART_ClockStructInit                    0x0800083b   Thumb Code    12  stm32f10x_usart.o(.text)
    USART_Cmd                                0x08000847   Thumb Code    24  stm32f10x_usart.o(.text)
    USART_ITConfig                           0x0800085f   Thumb Code    74  stm32f10x_usart.o(.text)
    USART_DMACmd                             0x080008a9   Thumb Code    18  stm32f10x_usart.o(.text)
    USART_SetAddress                         0x080008bb   Thumb Code    18  stm32f10x_usart.o(.text)
    USART_WakeUpConfig                       0x080008cd   Thumb Code    18  stm32f10x_usart.o(.text)
    USART_ReceiverWakeUpCmd                  0x080008df   Thumb Code    24  stm32f10x_usart.o(.text)
    USART_LINBreakDetectLengthConfig         0x080008f7   Thumb Code    18  stm32f10x_usart.o(.text)
    USART_LINCmd                             0x08000909   Thumb Code    24  stm32f10x_usart.o(.text)
    USART_SendData                           0x08000921   Thumb Code     8  stm32f10x_usart.o(.text)
    USART_ReceiveData                        0x08000929   Thumb Code    10  stm32f10x_usart.o(.text)
    USART_SendBreak                          0x08000933   Thumb Code    10  stm32f10x_usart.o(.text)
    USART_SetGuardTime                       0x0800093d   Thumb Code    16  stm32f10x_usart.o(.text)
    USART_SetPrescaler                       0x0800094d   Thumb Code    16  stm32f10x_usart.o(.text)
    USART_SmartCardCmd                       0x0800095d   Thumb Code    24  stm32f10x_usart.o(.text)
    USART_SmartCardNACKCmd                   0x08000975   Thumb Code    24  stm32f10x_usart.o(.text)
    USART_HalfDuplexCmd                      0x0800098d   Thumb Code    24  stm32f10x_usart.o(.text)
    USART_OverSampling8Cmd                   0x080009a5   Thumb Code    22  stm32f10x_usart.o(.text)
    USART_OneBitMethodCmd                    0x080009bb   Thumb Code    24  stm32f10x_usart.o(.text)
    USART_IrDAConfig                         0x080009d3   Thumb Code    18  stm32f10x_usart.o(.text)
    USART_IrDACmd                            0x080009e5   Thumb Code    24  stm32f10x_usart.o(.text)
    USART_GetFlagStatus                      0x080009fd   Thumb Code    26  stm32f10x_usart.o(.text)
    USART_ClearFlag                          0x08000a17   Thumb Code    18  stm32f10x_usart.o(.text)
    USART_GetITStatus                        0x08000a29   Thumb Code    84  stm32f10x_usart.o(.text)
    USART_ClearITPendingBit                  0x08000a7d   Thumb Code    52  stm32f10x_usart.o(.text)
    GPIO_DeInit                              0x08000ab1   Thumb Code   172  stm32f10x_gpio.o(.text)
    GPIO_AFIODeInit                          0x08000b5d   Thumb Code    20  stm32f10x_gpio.o(.text)
    GPIO_Init                                0x08000b71   Thumb Code   278  stm32f10x_gpio.o(.text)
    GPIO_StructInit                          0x08000c87   Thumb Code    16  stm32f10x_gpio.o(.text)
    GPIO_ReadInputDataBit                    0x08000c97   Thumb Code    18  stm32f10x_gpio.o(.text)
    GPIO_ReadInputData                       0x08000ca9   Thumb Code     8  stm32f10x_gpio.o(.text)
    GPIO_ReadOutputDataBit                   0x08000cb1   Thumb Code    18  stm32f10x_gpio.o(.text)
    GPIO_ReadOutputData                      0x08000cc3   Thumb Code     8  stm32f10x_gpio.o(.text)
    GPIO_SetBits                             0x08000ccb   Thumb Code     4  stm32f10x_gpio.o(.text)
    GPIO_ResetBits                           0x08000ccf   Thumb Code     4  stm32f10x_gpio.o(.text)
    GPIO_WriteBit                            0x08000cd3   Thumb Code    10  stm32f10x_gpio.o(.text)
    GPIO_Write                               0x08000cdd   Thumb Code     4  stm32f10x_gpio.o(.text)
    GPIO_PinLockConfig                       0x08000ce1   Thumb Code    18  stm32f10x_gpio.o(.text)
    GPIO_EventOutputConfig                   0x08000cf3   Thumb Code    26  stm32f10x_gpio.o(.text)
    GPIO_EventOutputCmd                      0x08000d0d   Thumb Code     6  stm32f10x_gpio.o(.text)
    GPIO_PinRemapConfig                      0x08000d13   Thumb Code   138  stm32f10x_gpio.o(.text)
    GPIO_EXTILineConfig                      0x08000d9d   Thumb Code    66  stm32f10x_gpio.o(.text)
    GPIO_ETH_MediaInterfaceConfig            0x08000ddf   Thumb Code     8  stm32f10x_gpio.o(.text)
    NVIC_PriorityGroupConfig                 0x08000e0d   Thumb Code    10  misc.o(.text)
    NVIC_Init                                0x08000e17   Thumb Code   100  misc.o(.text)
    NVIC_SetVectorTable                      0x08000e7b   Thumb Code    14  misc.o(.text)
    NVIC_SystemLPConfig                      0x08000e89   Thumb Code    34  misc.o(.text)
    SysTick_CLKSourceConfig                  0x08000eab   Thumb Code    40  misc.o(.text)
    TIM_DeInit                               0x08000ee9   Thumb Code   424  stm32f10x_tim.o(.text)
    TIM_TimeBaseInit                         0x08001091   Thumb Code   122  stm32f10x_tim.o(.text)
    TIM_OC1Init                              0x0800110b   Thumb Code   132  stm32f10x_tim.o(.text)
    TIM_OC2Init                              0x0800118f   Thumb Code   154  stm32f10x_tim.o(.text)
    TIM_OC3Init                              0x08001229   Thumb Code   150  stm32f10x_tim.o(.text)
    TIM_OC4Init                              0x080012bf   Thumb Code   182  stm32f10x_tim.o(.text)
    TIM_SetIC4Prescaler                      0x08001375   Thumb Code    26  stm32f10x_tim.o(.text)
    TIM_SetIC3Prescaler                      0x08001411   Thumb Code    18  stm32f10x_tim.o(.text)
    TIM_SetIC2Prescaler                      0x0800149d   Thumb Code    26  stm32f10x_tim.o(.text)
    TIM_SetIC1Prescaler                      0x08001539   Thumb Code    18  stm32f10x_tim.o(.text)
    TIM_ICInit                               0x080015b7   Thumb Code   150  stm32f10x_tim.o(.text)
    TIM_PWMIConfig                           0x0800164d   Thumb Code   124  stm32f10x_tim.o(.text)
    TIM_BDTRConfig                           0x080016c9   Thumb Code    32  stm32f10x_tim.o(.text)
    TIM_TimeBaseStructInit                   0x080016e9   Thumb Code    18  stm32f10x_tim.o(.text)
    TIM_OCStructInit                         0x080016fb   Thumb Code    20  stm32f10x_tim.o(.text)
    TIM_ICStructInit                         0x0800170f   Thumb Code    18  stm32f10x_tim.o(.text)
    TIM_BDTRStructInit                       0x08001721   Thumb Code    40  stm32f10x_tim.o(.text)
    TIM_Cmd                                  0x08001749   Thumb Code    24  stm32f10x_tim.o(.text)
    TIM_CtrlPWMOutputs                       0x08001761   Thumb Code    30  stm32f10x_tim.o(.text)
    TIM_ITConfig                             0x0800177f   Thumb Code    18  stm32f10x_tim.o(.text)
    TIM_GenerateEvent                        0x08001791   Thumb Code     4  stm32f10x_tim.o(.text)
    TIM_DMAConfig                            0x08001795   Thumb Code    10  stm32f10x_tim.o(.text)
    TIM_DMACmd                               0x0800179f   Thumb Code    18  stm32f10x_tim.o(.text)
    TIM_InternalClockConfig                  0x080017b1   Thumb Code    12  stm32f10x_tim.o(.text)
    TIM_SelectInputTrigger                   0x080017bd   Thumb Code    18  stm32f10x_tim.o(.text)
    TIM_ITRxExternalClockConfig              0x080017cf   Thumb Code    24  stm32f10x_tim.o(.text)
    TIM_TIxExternalClockConfig               0x080017e7   Thumb Code    62  stm32f10x_tim.o(.text)
    TIM_ETRConfig                            0x08001825   Thumb Code    28  stm32f10x_tim.o(.text)
    TIM_ETRClockMode1Config                  0x08001841   Thumb Code    54  stm32f10x_tim.o(.text)
    TIM_ETRClockMode2Config                  0x08001877   Thumb Code    32  stm32f10x_tim.o(.text)
    TIM_PrescalerConfig                      0x08001897   Thumb Code     6  stm32f10x_tim.o(.text)
    TIM_CounterModeConfig                    0x0800189d   Thumb Code    18  stm32f10x_tim.o(.text)
    TIM_EncoderInterfaceConfig               0x080018af   Thumb Code    66  stm32f10x_tim.o(.text)
    TIM_ForcedOC1Config                      0x080018f1   Thumb Code    18  stm32f10x_tim.o(.text)
    TIM_ForcedOC2Config                      0x08001903   Thumb Code    26  stm32f10x_tim.o(.text)
    TIM_ForcedOC3Config                      0x0800191d   Thumb Code    18  stm32f10x_tim.o(.text)
    TIM_ForcedOC4Config                      0x0800192f   Thumb Code    26  stm32f10x_tim.o(.text)
    TIM_ARRPreloadConfig                     0x08001949   Thumb Code    24  stm32f10x_tim.o(.text)
    TIM_SelectCOM                            0x08001961   Thumb Code    24  stm32f10x_tim.o(.text)
    TIM_SelectCCDMA                          0x08001979   Thumb Code    24  stm32f10x_tim.o(.text)
    TIM_CCPreloadControl                     0x08001991   Thumb Code    24  stm32f10x_tim.o(.text)
    TIM_OC1PreloadConfig                     0x080019a9   Thumb Code    18  stm32f10x_tim.o(.text)
    TIM_OC2PreloadConfig                     0x080019bb   Thumb Code    26  stm32f10x_tim.o(.text)
    TIM_OC3PreloadConfig                     0x080019d5   Thumb Code    18  stm32f10x_tim.o(.text)
    TIM_OC4PreloadConfig                     0x080019e7   Thumb Code    26  stm32f10x_tim.o(.text)
    TIM_OC1FastConfig                        0x08001a01   Thumb Code    18  stm32f10x_tim.o(.text)
    TIM_OC2FastConfig                        0x08001a13   Thumb Code    26  stm32f10x_tim.o(.text)
    TIM_OC3FastConfig                        0x08001a2d   Thumb Code    18  stm32f10x_tim.o(.text)
    TIM_OC4FastConfig                        0x08001a3f   Thumb Code    26  stm32f10x_tim.o(.text)
    TIM_ClearOC1Ref                          0x08001a59   Thumb Code    18  stm32f10x_tim.o(.text)
    TIM_ClearOC2Ref                          0x08001a6b   Thumb Code    24  stm32f10x_tim.o(.text)
    TIM_ClearOC3Ref                          0x08001a83   Thumb Code    18  stm32f10x_tim.o(.text)
    TIM_ClearOC4Ref                          0x08001a95   Thumb Code    24  stm32f10x_tim.o(.text)
    TIM_OC1PolarityConfig                    0x08001aad   Thumb Code    18  stm32f10x_tim.o(.text)
    TIM_OC1NPolarityConfig                   0x08001abf   Thumb Code    18  stm32f10x_tim.o(.text)
    TIM_OC2PolarityConfig                    0x08001ad1   Thumb Code    26  stm32f10x_tim.o(.text)
    TIM_OC2NPolarityConfig                   0x08001aeb   Thumb Code    26  stm32f10x_tim.o(.text)
    TIM_OC3PolarityConfig                    0x08001b05   Thumb Code    26  stm32f10x_tim.o(.text)
    TIM_OC3NPolarityConfig                   0x08001b1f   Thumb Code    26  stm32f10x_tim.o(.text)
    TIM_OC4PolarityConfig                    0x08001b39   Thumb Code    26  stm32f10x_tim.o(.text)
    TIM_CCxCmd                               0x08001b53   Thumb Code    30  stm32f10x_tim.o(.text)
    TIM_CCxNCmd                              0x08001b71   Thumb Code    30  stm32f10x_tim.o(.text)
    TIM_SelectOCxM                           0x08001b8f   Thumb Code    82  stm32f10x_tim.o(.text)
    TIM_UpdateDisableConfig                  0x08001be1   Thumb Code    24  stm32f10x_tim.o(.text)
    TIM_UpdateRequestConfig                  0x08001bf9   Thumb Code    24  stm32f10x_tim.o(.text)
    TIM_SelectHallSensor                     0x08001c11   Thumb Code    24  stm32f10x_tim.o(.text)
    TIM_SelectOnePulseMode                   0x08001c29   Thumb Code    18  stm32f10x_tim.o(.text)
    TIM_SelectOutputTrigger                  0x08001c3b   Thumb Code    18  stm32f10x_tim.o(.text)
    TIM_SelectSlaveMode                      0x08001c4d   Thumb Code    18  stm32f10x_tim.o(.text)
    TIM_SelectMasterSlaveMode                0x08001c5f   Thumb Code    18  stm32f10x_tim.o(.text)
    TIM_SetCounter                           0x08001c71   Thumb Code     4  stm32f10x_tim.o(.text)
    TIM_SetAutoreload                        0x08001c75   Thumb Code     4  stm32f10x_tim.o(.text)
    TIM_SetCompare1                          0x08001c79   Thumb Code     4  stm32f10x_tim.o(.text)
    TIM_SetCompare2                          0x08001c7d   Thumb Code     4  stm32f10x_tim.o(.text)
    TIM_SetCompare3                          0x08001c81   Thumb Code     4  stm32f10x_tim.o(.text)
    TIM_SetCompare4                          0x08001c85   Thumb Code     6  stm32f10x_tim.o(.text)
    TIM_SetClockDivision                     0x08001c8b   Thumb Code    18  stm32f10x_tim.o(.text)
    TIM_GetCapture1                          0x08001c9d   Thumb Code     6  stm32f10x_tim.o(.text)
    TIM_GetCapture2                          0x08001ca3   Thumb Code     6  stm32f10x_tim.o(.text)
    TIM_GetCapture3                          0x08001ca9   Thumb Code     6  stm32f10x_tim.o(.text)
    TIM_GetCapture4                          0x08001caf   Thumb Code     8  stm32f10x_tim.o(.text)
    TIM_GetCounter                           0x08001cb7   Thumb Code     6  stm32f10x_tim.o(.text)
    TIM_GetPrescaler                         0x08001cbd   Thumb Code     6  stm32f10x_tim.o(.text)
    TIM_GetFlagStatus                        0x08001cc3   Thumb Code    18  stm32f10x_tim.o(.text)
    TIM_ClearFlag                            0x08001cd5   Thumb Code     6  stm32f10x_tim.o(.text)
    TIM_GetITStatus                          0x08001cdb   Thumb Code    34  stm32f10x_tim.o(.text)
    TIM_ClearITPendingBit                    0x08001cfd   Thumb Code     6  stm32f10x_tim.o(.text)
    Usart1_Initial                           0x08001d05   Thumb Code   158  usart.o(.text)
    USART1_IRQHandler                        0x08001da3   Thumb Code    94  usart.o(.text)
    u1_printf                                0x08001e01   Thumb Code    72  usart.o(.text)
    USART1_send_byte                         0x08001e49   Thumb Code    26  usart.o(.text)
    USART_Send_bytes                         0x08001e63   Thumb Code    28  usart.o(.text)
    USART_Send                               0x08001e7f   Thumb Code    46  usart.o(.text)
    Usart2_Initial                           0x08001ead   Thumb Code   180  usart.o(.text)
    USART2_IRQHandler                        0x08001f61   Thumb Code   138  usart.o(.text)
    USART2_send_byte                         0x08001feb   Thumb Code    26  usart.o(.text)
    USART2_send_16out                        0x08002005   Thumb Code    20  usart.o(.text)
    Usart3_Initial                           0x08002019   Thumb Code   146  usart.o(.text)
    USART3_IRQHandler                        0x080020ab   Thumb Code    34  usart.o(.text)
    _sys_exit                                0x080020cd   Thumb Code     4  usart.o(.text)
    fputc                                    0x080020d1   Thumb Code    24  usart.o(.text)
    delay_init                               0x08002119   Thumb Code    52  delay.o(.text)
    delay_us                                 0x0800214d   Thumb Code    56  delay.o(.text)
    delay_ms                                 0x08002185   Thumb Code    56  delay.o(.text)
    NMI_Handler                              0x080021c5   Thumb Code     2  stm32f10x_it.o(.text)
    HardFault_Handler                        0x080021c7   Thumb Code     4  stm32f10x_it.o(.text)
    MemManage_Handler                        0x080021cb   Thumb Code     4  stm32f10x_it.o(.text)
    BusFault_Handler                         0x080021cf   Thumb Code     4  stm32f10x_it.o(.text)
    UsageFault_Handler                       0x080021d3   Thumb Code     4  stm32f10x_it.o(.text)
    SVC_Handler                              0x080021d7   Thumb Code     2  stm32f10x_it.o(.text)
    DebugMon_Handler                         0x080021d9   Thumb Code     2  stm32f10x_it.o(.text)
    PendSV_Handler                           0x080021db   Thumb Code     2  stm32f10x_it.o(.text)
    SysTick_Handler                          0x080021dd   Thumb Code     2  stm32f10x_it.o(.text)
    EXTI9_5_IRQHandler                       0x080021df   Thumb Code     2  stm32f10x_it.o(.text)
    LED_Init                                 0x080021e1   Thumb Code    50  led.o(.text)
    LED_Glimmer                              0x08002213   Thumb Code    32  led.o(.text)
    LED2_Init                                0x08002233   Thumb Code    50  led.o(.text)
    LED2_Glimmer                             0x08002265   Thumb Code    32  led.o(.text)
    sim_at_response                          0x0800229d   Thumb Code    46  sim800c.o(.text)
    sim800c_check_cmd                        0x080022cb   Thumb Code    44  sim800c.o(.text)
    sim800c_send_cmd                         0x080022f7   Thumb Code   150  sim800c.o(.text)
    sim800c_wait_request                     0x0800238d   Thumb Code    82  sim800c.o(.text)
    sim800c_chr2hex                          0x080023df   Thumb Code    54  sim800c.o(.text)
    sim800c_hex2chr                          0x08002415   Thumb Code    34  sim800c.o(.text)
    sim800c_get_keynum                       0x08002437   Thumb Code     6  sim800c.o(.text)
    SIM800C_Call                             0x0800243d   Thumb Code   938  sim800c.o(.text)
    sim800c_sms_read_test                    0x080027e7   Thumb Code   636  sim800c.o(.text)
    sim800c_sms_send_test                    0x08002a63   Thumb Code   598  sim800c.o(.text)
    sim800c_sms_test                         0x08002cb9   Thumb Code   182  sim800c.o(.text)
    SIM800C_TCP_UDP_Initial                  0x08002d6f   Thumb Code   282  sim800c.o(.text)
    SIM800C_TCP_UDP_ReceiveProcess           0x08002e89   Thumb Code   156  sim800c.o(.text)
    SIM800C_TCP_UDP_SendData                 0x08002f25   Thumb Code  1058  sim800c.o(.text)
    SIM800C_TCP_UDP_Run                      0x08003347   Thumb Code   478  sim800c.o(.text)
    sim800c_spp_mode                         0x08003525   Thumb Code   962  sim800c.o(.text)
    sim800c_spp_test                         0x080038e7   Thumb Code   200  sim800c.o(.text)
    SIM800C_Info_Show                        0x080039af   Thumb Code   518  sim800c.o(.text)
    ntp_update                               0x08003bb5   Thumb Code    80  sim800c.o(.text)
    sim800c_test                             0x08003c05   Thumb Code   656  sim800c.o(.text)
    TIM2_SetARR                              0x08003e99   Thumb Code    38  timer.o(.text)
    TIM2_IRQHandler                          0x08003ebf   Thumb Code   112  timer.o(.text)
    TIM2_Int_Init                            0x08003f2f   Thumb Code   100  timer.o(.text)
    mymemcpy                                 0x08003fa1   Thumb Code    26  malloc.o(.text)
    mymemset                                 0x08003fbb   Thumb Code    20  malloc.o(.text)
    my_mem_init                              0x08003fcf   Thumb Code    54  malloc.o(.text)
    my_mem_perused                           0x08004005   Thumb Code    54  malloc.o(.text)
    my_mem_malloc                            0x0800403b   Thumb Code   154  malloc.o(.text)
    my_mem_free                              0x080040d5   Thumb Code    94  malloc.o(.text)
    myfree                                   0x08004133   Thumb Code    32  malloc.o(.text)
    mymalloc                                 0x08004153   Thumb Code    36  malloc.o(.text)
    myrealloc                                0x08004177   Thumb Code    68  malloc.o(.text)
    bitCount                                 0x080041cd   Thumb Code    48  dataprocess.o(.text)
    int2string                               0x080041fd   Thumb Code    98  dataprocess.o(.text)
    float2string                             0x0800425f   Thumb Code   226  dataprocess.o(.text)
    string2float                             0x08004341   Thumb Code    12  dataprocess.o(.text)
    GetFractionalCapacity                    0x0800434d   Thumb Code   108  dataprocess.o(.text)
    GetFractionalPart2int                    0x080043b9   Thumb Code    90  dataprocess.o(.text)
    GetIntegerCapacity                       0x08004413   Thumb Code    22  dataprocess.o(.text)
    IsInteger                                0x08004429   Thumb Code    44  dataprocess.o(.text)
    Connect2String                           0x08004455   Thumb Code    54  dataprocess.o(.text)
    Connect3String                           0x0800448b   Thumb Code    66  dataprocess.o(.text)
    Connect4String                           0x080044cd   Thumb Code    78  dataprocess.o(.text)
    ConnectStrings                           0x0800451b   Thumb Code    94  dataprocess.o(.text)
    KillAllStrings                           0x08004579   Thumb Code    44  dataprocess.o(.text)
    ClearAllStrings                          0x080045a5   Thumb Code    40  dataprocess.o(.text)
    CutFloatEndZero                          0x080045cd   Thumb Code   136  dataprocess.o(.text)
    TransceiverControl                       0x08004685   Thumb Code    88  main.o(.text)
    main                                     0x080046dd   Thumb Code  1296  main.o(.text)
    DebugControl                             0x08004bed   Thumb Code   254  main.o(.text)
    __aeabi_memcpy                           0x08004db9   Thumb Code    36  memcpya.o(.text)
    __aeabi_memcpy4                          0x08004db9   Thumb Code     0  memcpya.o(.text)
    __aeabi_memcpy8                          0x08004db9   Thumb Code     0  memcpya.o(.text)
    __aeabi_memset                           0x08004ddd   Thumb Code    14  memseta.o(.text)
    __aeabi_memset4                          0x08004ddd   Thumb Code     0  memseta.o(.text)
    __aeabi_memset8                          0x08004ddd   Thumb Code     0  memseta.o(.text)
    __aeabi_memclr                           0x08004deb   Thumb Code     4  memseta.o(.text)
    __aeabi_memclr4                          0x08004deb   Thumb Code     0  memseta.o(.text)
    __aeabi_memclr8                          0x08004deb   Thumb Code     0  memseta.o(.text)
    _memset$wrapper                          0x08004def   Thumb Code    18  memseta.o(.text)
    strcat                                   0x08004e01   Thumb Code    24  strcat.o(.text)
    strstr                                   0x08004e19   Thumb Code    36  strstr.o(.text)
    strlen                                   0x08004e3d   Thumb Code    14  strlen.o(.text)
    strcpy                                   0x08004e4b   Thumb Code    18  strcpy.o(.text)
    __aeabi_fadd                             0x08004e5d   Thumb Code   164  fadd.o(.text)
    __aeabi_fsub                             0x08004f01   Thumb Code     6  fadd.o(.text)
    __aeabi_frsub                            0x08004f07   Thumb Code     6  fadd.o(.text)
    __aeabi_fmul                             0x08004f0d   Thumb Code   100  fmul.o(.text)
    __aeabi_dadd                             0x08004f71   Thumb Code   322  dadd.o(.text)
    __aeabi_dsub                             0x080050b3   Thumb Code     6  dadd.o(.text)
    __aeabi_drsub                            0x080050b9   Thumb Code     6  dadd.o(.text)
    __aeabi_dmul                             0x080050bf   Thumb Code   228  dmul.o(.text)
    __aeabi_ddiv                             0x080051a3   Thumb Code   222  ddiv.o(.text)
    __aeabi_i2f                              0x08005281   Thumb Code    18  fflti.o(.text)
    __aeabi_ui2f                             0x08005293   Thumb Code    10  ffltui.o(.text)
    __aeabi_i2d                              0x0800529d   Thumb Code    34  dflti.o(.text)
    __aeabi_ui2d                             0x080052bf   Thumb Code    26  dfltui.o(.text)
    __aeabi_f2iz                             0x080052d9   Thumb Code    50  ffixi.o(.text)
    __aeabi_f2uiz                            0x0800530b   Thumb Code    40  ffixui.o(.text)
    __aeabi_d2iz                             0x08005333   Thumb Code    62  dfixi.o(.text)
    __aeabi_d2uiz                            0x08005371   Thumb Code    50  dfixui.o(.text)
    __aeabi_f2d                              0x080053a3   Thumb Code    38  f2d.o(.text)
    __aeabi_cdcmpeq                          0x080053c9   Thumb Code     0  cdcmple.o(.text)
    __aeabi_cdcmple                          0x080053c9   Thumb Code    48  cdcmple.o(.text)
    __aeabi_cfcmpeq                          0x080053f9   Thumb Code     0  cfcmple.o(.text)
    __aeabi_cfcmple                          0x080053f9   Thumb Code    20  cfcmple.o(.text)
    __aeabi_cfrcmple                         0x0800540d   Thumb Code    20  cfrcmple.o(.text)
    __aeabi_uidiv                            0x08005421   Thumb Code     0  uidiv.o(.text)
    __aeabi_uidivmod                         0x08005421   Thumb Code    44  uidiv.o(.text)
    __aeabi_uldivmod                         0x0800544d   Thumb Code    98  uldiv.o(.text)
    __aeabi_llsl                             0x080054af   Thumb Code    30  llshl.o(.text)
    _ll_shift_l                              0x080054af   Thumb Code     0  llshl.o(.text)
    __aeabi_llsr                             0x080054cd   Thumb Code    32  llushr.o(.text)
    _ll_ushift_r                             0x080054cd   Thumb Code     0  llushr.o(.text)
    __aeabi_lasr                             0x080054ed   Thumb Code    36  llsshr.o(.text)
    _ll_sshift_r                             0x080054ed   Thumb Code     0  llsshr.o(.text)
    __strtod_int                             0x08005547   Thumb Code    88  strtod.o(.text)
    __I$use$fp                               0x080055ad   Thumb Code     0  iusefp.o(.text)
    _float_round                             0x080055ad   Thumb Code    18  fepilogue.o(.text)
    _float_epilogue                          0x080055bf   Thumb Code    92  fepilogue.o(.text)
    _double_round                            0x0800561b   Thumb Code    30  depilogue.o(.text)
    _double_epilogue                         0x08005639   Thumb Code   156  depilogue.o(.text)
    __ARM_scalbn                             0x080056d5   Thumb Code    46  dscalb.o(.text)
    scalbn                                   0x080056d5   Thumb Code     0  dscalb.o(.text)
    __aeabi_d2ulz                            0x08005703   Thumb Code    48  dfixul.o(.text)
    __aeabi_cdrcmple                         0x08005735   Thumb Code    48  cdrcmple.o(.text)
    __scatterload                            0x08005765   Thumb Code    28  init.o(.text)
    __scatterload_rt2                        0x08005765   Thumb Code     0  init.o(.text)
    isspace                                  0x08005789   Thumb Code    10  isspace_c.o(.text)
    _scanf_real                              0x08005895   Thumb Code     0  scanf_fp.o(.text)
    _scanf_really_real                       0x08005895   Thumb Code   556  scanf_fp.o(.text)
    _sgetc                                   0x08005acd   Thumb Code    30  _sgetc.o(.text)
    _sbackspace                              0x08005aeb   Thumb Code    34  _sgetc.o(.text)
    _dsqrt                                   0x08005b0d   Thumb Code   162  dsqrt.o(.text)
    __ctype_lookup                           0x08005bb1   Thumb Code    34  ctype_c.o(.text)
    __aeabi_ul2d                             0x08005bd9   Thumb Code    24  dfltul.o(.text)
    __aeabi_d2f                              0x08005bf1   Thumb Code    56  d2f.o(.text)
    __0printf                                0x08005c29   Thumb Code    22  printfa.o(i.__0printf)
    __1printf                                0x08005c29   Thumb Code     0  printfa.o(i.__0printf)
    __2printf                                0x08005c29   Thumb Code     0  printfa.o(i.__0printf)
    __c89printf                              0x08005c29   Thumb Code     0  printfa.o(i.__0printf)
    printf                                   0x08005c29   Thumb Code     0  printfa.o(i.__0printf)
    __0sprintf                               0x08005c49   Thumb Code    34  printfa.o(i.__0sprintf)
    __1sprintf                               0x08005c49   Thumb Code     0  printfa.o(i.__0sprintf)
    __2sprintf                               0x08005c49   Thumb Code     0  printfa.o(i.__0sprintf)
    __c89sprintf                             0x08005c49   Thumb Code     0  printfa.o(i.__0sprintf)
    sprintf                                  0x08005c49   Thumb Code     0  printfa.o(i.__0sprintf)
    __0vsprintf                              0x08005c71   Thumb Code    30  printfa.o(i.__0vsprintf)
    __1vsprintf                              0x08005c71   Thumb Code     0  printfa.o(i.__0vsprintf)
    __2vsprintf                              0x08005c71   Thumb Code     0  printfa.o(i.__0vsprintf)
    __c89vsprintf                            0x08005c71   Thumb Code     0  printfa.o(i.__0vsprintf)
    vsprintf                                 0x08005c71   Thumb Code     0  printfa.o(i.__0vsprintf)
    __ARM_fpclassify                         0x08005c95   Thumb Code    40  fpclassify.o(i.__ARM_fpclassify)
    __kernel_poly                            0x08005cbd   Thumb Code   170  poly.o(i.__kernel_poly)
    __mathlib_dbl_divzero                    0x08005d69   Thumb Code    12  dunder.o(i.__mathlib_dbl_divzero)
    __mathlib_dbl_infnan2                    0x08005d79   Thumb Code     4  dunder.o(i.__mathlib_dbl_infnan2)
    __mathlib_dbl_invalid                    0x08005d7d   Thumb Code    12  dunder.o(i.__mathlib_dbl_invalid)
    __mathlib_dbl_overflow                   0x08005d89   Thumb Code    14  dunder.o(i.__mathlib_dbl_overflow)
    __mathlib_dbl_underflow                  0x08005d99   Thumb Code    10  dunder.o(i.__mathlib_dbl_underflow)
    __read_errno                             0x08005da9   Thumb Code     6  errno.o(i.__read_errno)
    __scatterload_copy                       0x08005db5   Thumb Code    14  handlers.o(i.__scatterload_copy)
    __scatterload_null                       0x08005dc3   Thumb Code     2  handlers.o(i.__scatterload_null)
    __scatterload_zeroinit                   0x08005dc5   Thumb Code    14  handlers.o(i.__scatterload_zeroinit)
    __set_errno                              0x08005dd5   Thumb Code     6  errno.o(i.__set_errno)
    _is_digit                                0x08005f45   Thumb Code    14  scanf_fp.o(i._is_digit)
    atof                                     0x0800668d   Thumb Code    42  atof.o(i.atof)
    pow                                      0x080066b9   Thumb Code  2478  pow.o(i.pow)
    sqrt                                     0x08007071   Thumb Code    76  sqrt.o(i.sqrt)
    memtblsize                               0x080070bc   Data           4  malloc.o(.constdata)
    memblksize                               0x080070c0   Data           4  malloc.o(.constdata)
    memsize                                  0x080070c4   Data           4  malloc.o(.constdata)
    __mathlib_zero                           0x08007150   Data           8  qnan.o(.constdata)
    __ctype_categories                       0x08007158   Data          64  ctype_c.o(.constdata)
    Region$$Table$$Base                      0x08007224   Number         0  anon$$obj.o(Region$$Table)
    Region$$Table$$Limit                     0x08007244   Number         0  anon$$obj.o(Region$$Table)
    SystemCoreClock                          0x20000000   Data           4  system_stm32f10x.o(.data)
    AHBPrescTable                            0x20000004   Data          16  system_stm32f10x.o(.data)
    USART1_RX_STA                            0x20000028   Data           2  usart.o(.data)
    USART2_RX_STA                            0x2000002a   Data           2  usart.o(.data)
    USART3_RX_STA                            0x2000002c   Data           2  usart.o(.data)
    __stdout                                 0x20000030   Data           4  usart.o(.data)
    DataLenth                                0x20000038   Data           4  sim800c.o(.data)
    ConnectTarget                            0x2000003c   Data           4  sim800c.o(.data)
    Send2SlaveFlag                           0x20000040   Data           1  sim800c.o(.data)
    BT_Scan_mode                             0x20000041   Data           1  sim800c.o(.data)
    key                                      0x20000042   Data           1  sim800c.o(.data)
    modetbl                                  0x20000044   Data           8  sim800c.o(.data)
    SendSpeed                                0x2000004c   Data           2  sim800c.o(.data)
    SendMode                                 0x2000004e   Data           1  sim800c.o(.data)
    kbd_tbl1                                 0x20000050   Data          52  sim800c.o(.data)
    kbd_tbl2                                 0x20000084   Data          52  sim800c.o(.data)
    kbd_tbl                                  0x200000b8   Data           4  sim800c.o(.data)
    kbd_fn_tbl                               0x200000bc   Data           8  sim800c.o(.data)
    sim800c_test_msg                         0x200000c4   Data           4  sim800c.o(.data)
    Scan_Wtime                               0x200000d0   Data           1  timer.o(.data)
    mallco_dev                               0x200000d4   Data          20  malloc.o(.data)
    SlaveAddressCount                        0x200000e8   Data           1  main.o(.data)
    HandShakeCheck                           0x200000ea   Data           2  main.o(.data)
    LED_cnt                                  0x200000ec   Data           1  main.o(.data)
    USART1_RX_BUF                            0x200000f4   Data         200  usart.o(.bss)
    USART1_TX_BUF                            0x200001bc   Data         200  usart.o(.bss)
    USART2_RX_BUF                            0x20000284   Data         100  usart.o(.bss)
    USART3_RX_BUF                            0x200002e8   Data         100  usart.o(.bss)
    Data2Send                                0x2000034c   Data         300  sim800c.o(.bss)
    DataReceived                             0x20000478   Data         100  sim800c.o(.bss)
    mem1base                                 0x200004e0   Data       10240  malloc.o(.bss)
    mem1mapbase                              0x20002ce0   Data         640  malloc.o(.bss)
    DataRestored                             0x20002f60   Data         300  main.o(.bss)
    TemHumDataX                              0x2000308c   Data          12  main.o(.bss)
    __initial_sp                             0x20003498   Data           0  startup_stm32f10x_md.o(STACK)



==============================================================================

Memory Map of the image

  Image Entry point : 0x080000ed

  Load Region LR_IROM1 (Base: 0x08000000, Size: 0x00007338, Max: 0x00010000, ABSOLUTE)

    Execution Region ER_IROM1 (Base: 0x08000000, Size: 0x00007244, Max: 0x00010000, ABSOLUTE)

    Base Addr    Size         Type   Attr      Idx    E Section Name        Object

    0x08000000   0x000000ec   Data   RO           59    RESET               startup_stm32f10x_md.o
    0x080000ec   0x00000000   Code   RO          369  * .ARM.Collect$$$$00000000  mc_w.l(entry.o)
    0x080000ec   0x00000004   Code   RO          708    .ARM.Collect$$$$00000001  mc_w.l(entry2.o)
    0x080000f0   0x00000004   Code   RO          711    .ARM.Collect$$$$00000004  mc_w.l(entry5.o)
    0x080000f4   0x00000000   Code   RO          713    .ARM.Collect$$$$00000008  mc_w.l(entry7b.o)
    0x080000f4   0x00000000   Code   RO          715    .ARM.Collect$$$$0000000A  mc_w.l(entry8b.o)
    0x080000f4   0x00000008   Code   RO          716    .ARM.Collect$$$$0000000B  mc_w.l(entry9a.o)
    0x080000fc   0x00000000   Code   RO          718    .ARM.Collect$$$$0000000D  mc_w.l(entry10a.o)
    0x080000fc   0x00000000   Code   RO          720    .ARM.Collect$$$$0000000F  mc_w.l(entry11a.o)
    0x080000fc   0x00000004   Code   RO          709    .ARM.Collect$$$$00002712  mc_w.l(entry2.o)
    0x08000100   0x000001e0   Code   RO           17    .text               system_stm32f10x.o
    0x080002e0   0x00000024   Code   RO           60    .text               startup_stm32f10x_md.o
    0x08000304   0x000003a4   Code   RO           64    .text               stm32f10x_rcc.o
    0x080006a8   0x00000408   Code   RO           82    .text               stm32f10x_usart.o
    0x08000ab0   0x0000035c   Code   RO           94    .text               stm32f10x_gpio.o
    0x08000e0c   0x000000dc   Code   RO          106    .text               misc.o
    0x08000ee8   0x00000e1a   Code   RO          118    .text               stm32f10x_tim.o
    0x08001d02   0x00000002   PAD
    0x08001d04   0x00000414   Code   RO          133    .text               usart.o
    0x08002118   0x000000ac   Code   RO          169    .text               delay.o
    0x080021c4   0x0000001c   Code   RO          186    .text               stm32f10x_it.o
    0x080021e0   0x000000bc   Code   RO          212    .text               led.o
    0x0800229c   0x00001bfc   Code   RO          236    .text               sim800c.o
    0x08003e98   0x00000108   Code   RO          275    .text               timer.o
    0x08003fa0   0x0000022c   Code   RO          291    .text               malloc.o
    0x080041cc   0x000004b8   Code   RO          311    .text               dataprocess.o
    0x08004684   0x00000734   Code   RO          333    .text               main.o
    0x08004db8   0x00000024   Code   RO          372    .text               mc_w.l(memcpya.o)
    0x08004ddc   0x00000024   Code   RO          374    .text               mc_w.l(memseta.o)
    0x08004e00   0x00000018   Code   RO          376    .text               mc_w.l(strcat.o)
    0x08004e18   0x00000024   Code   RO          378    .text               mc_w.l(strstr.o)
    0x08004e3c   0x0000000e   Code   RO          380    .text               mc_w.l(strlen.o)
    0x08004e4a   0x00000012   Code   RO          382    .text               mc_w.l(strcpy.o)
    0x08004e5c   0x000000b0   Code   RO          647    .text               mf_w.l(fadd.o)
    0x08004f0c   0x00000064   Code   RO          649    .text               mf_w.l(fmul.o)
    0x08004f70   0x0000014e   Code   RO          651    .text               mf_w.l(dadd.o)
    0x080050be   0x000000e4   Code   RO          653    .text               mf_w.l(dmul.o)
    0x080051a2   0x000000de   Code   RO          655    .text               mf_w.l(ddiv.o)
    0x08005280   0x00000012   Code   RO          657    .text               mf_w.l(fflti.o)
    0x08005292   0x0000000a   Code   RO          659    .text               mf_w.l(ffltui.o)
    0x0800529c   0x00000022   Code   RO          661    .text               mf_w.l(dflti.o)
    0x080052be   0x0000001a   Code   RO          663    .text               mf_w.l(dfltui.o)
    0x080052d8   0x00000032   Code   RO          665    .text               mf_w.l(ffixi.o)
    0x0800530a   0x00000028   Code   RO          667    .text               mf_w.l(ffixui.o)
    0x08005332   0x0000003e   Code   RO          669    .text               mf_w.l(dfixi.o)
    0x08005370   0x00000032   Code   RO          671    .text               mf_w.l(dfixui.o)
    0x080053a2   0x00000026   Code   RO          673    .text               mf_w.l(f2d.o)
    0x080053c8   0x00000030   Code   RO          675    .text               mf_w.l(cdcmple.o)
    0x080053f8   0x00000014   Code   RO          677    .text               mf_w.l(cfcmple.o)
    0x0800540c   0x00000014   Code   RO          679    .text               mf_w.l(cfrcmple.o)
    0x08005420   0x0000002c   Code   RO          722    .text               mc_w.l(uidiv.o)
    0x0800544c   0x00000062   Code   RO          724    .text               mc_w.l(uldiv.o)
    0x080054ae   0x0000001e   Code   RO          726    .text               mc_w.l(llshl.o)
    0x080054cc   0x00000020   Code   RO          728    .text               mc_w.l(llushr.o)
    0x080054ec   0x00000024   Code   RO          730    .text               mc_w.l(llsshr.o)
    0x08005510   0x0000009c   Code   RO          739    .text               mc_w.l(strtod.o)
    0x080055ac   0x00000000   Code   RO          741    .text               mc_w.l(iusefp.o)
    0x080055ac   0x0000006e   Code   RO          742    .text               mf_w.l(fepilogue.o)
    0x0800561a   0x000000ba   Code   RO          744    .text               mf_w.l(depilogue.o)
    0x080056d4   0x0000002e   Code   RO          746    .text               mf_w.l(dscalb.o)
    0x08005702   0x00000030   Code   RO          748    .text               mf_w.l(dfixul.o)
    0x08005732   0x00000002   PAD
    0x08005734   0x00000030   Code   RO          750    .text               mf_w.l(cdrcmple.o)
    0x08005764   0x00000024   Code   RO          752    .text               mc_w.l(init.o)
    0x08005788   0x0000000a   Code   RO          754    .text               mc_w.l(isspace_c.o)
    0x08005792   0x00000002   PAD
    0x08005794   0x00000338   Code   RO          756    .text               mc_w.l(scanf_fp.o)
    0x08005acc   0x00000040   Code   RO          760    .text               mc_w.l(_sgetc.o)
    0x08005b0c   0x000000a2   Code   RO          762    .text               mf_w.l(dsqrt.o)
    0x08005bae   0x00000002   PAD
    0x08005bb0   0x00000028   Code   RO          764    .text               mc_w.l(ctype_c.o)
    0x08005bd8   0x00000018   Code   RO          767    .text               mf_w.l(dfltul.o)
    0x08005bf0   0x00000038   Code   RO          769    .text               mf_w.l(d2f.o)
    0x08005c28   0x00000020   Code   RO          619    i.__0printf         mc_w.l(printfa.o)
    0x08005c48   0x00000028   Code   RO          621    i.__0sprintf        mc_w.l(printfa.o)
    0x08005c70   0x00000024   Code   RO          625    i.__0vsprintf       mc_w.l(printfa.o)
    0x08005c94   0x00000028   Code   RO          695    i.__ARM_fpclassify  m_ws.l(fpclassify.o)
    0x08005cbc   0x000000aa   Code   RO          697    i.__kernel_poly     m_ws.l(poly.o)
    0x08005d66   0x00000002   PAD
    0x08005d68   0x00000010   Code   RO          681    i.__mathlib_dbl_divzero  m_ws.l(dunder.o)
    0x08005d78   0x00000004   Code   RO          683    i.__mathlib_dbl_infnan2  m_ws.l(dunder.o)
    0x08005d7c   0x0000000c   Code   RO          684    i.__mathlib_dbl_invalid  m_ws.l(dunder.o)
    0x08005d88   0x0000000e   Code   RO          685    i.__mathlib_dbl_overflow  m_ws.l(dunder.o)
    0x08005d96   0x00000002   PAD
    0x08005d98   0x00000010   Code   RO          687    i.__mathlib_dbl_underflow  m_ws.l(dunder.o)
    0x08005da8   0x0000000c   Code   RO          733    i.__read_errno      mc_w.l(errno.o)
    0x08005db4   0x0000000e   Code   RO          773    i.__scatterload_copy  mc_w.l(handlers.o)
    0x08005dc2   0x00000002   Code   RO          774    i.__scatterload_null  mc_w.l(handlers.o)
    0x08005dc4   0x0000000e   Code   RO          775    i.__scatterload_zeroinit  mc_w.l(handlers.o)
    0x08005dd2   0x00000002   PAD
    0x08005dd4   0x0000000c   Code   RO          734    i.__set_errno       mc_w.l(errno.o)
    0x08005de0   0x00000164   Code   RO          626    i._fp_digits        mc_w.l(printfa.o)
    0x08005f44   0x0000000e   Code   RO          758    i._is_digit         mc_w.l(scanf_fp.o)
    0x08005f52   0x00000002   PAD
    0x08005f54   0x000006dc   Code   RO          627    i._printf_core      mc_w.l(printfa.o)
    0x08006630   0x00000024   Code   RO          628    i._printf_post_padding  mc_w.l(printfa.o)
    0x08006654   0x0000002e   Code   RO          629    i._printf_pre_padding  mc_w.l(printfa.o)
    0x08006682   0x0000000a   Code   RO          631    i._sputc            mc_w.l(printfa.o)
    0x0800668c   0x0000002a   Code   RO          356    i.atof              m_ws.l(atof.o)
    0x080066b6   0x00000002   PAD
    0x080066b8   0x000009b8   Code   RO          360    i.pow               m_ws.l(pow.o)
    0x08007070   0x0000004c   Code   RO          701    i.sqrt              m_ws.l(sqrt.o)
    0x080070bc   0x0000000c   Data   RO          293    .constdata          malloc.o
    0x080070c8   0x00000088   Data   RO          361    .constdata          m_ws.l(pow.o)
    0x08007150   0x00000008   Data   RO          699    .constdata          m_ws.l(qnan.o)
    0x08007158   0x00000040   Data   RO          765    .constdata          mc_w.l(ctype_c.o)
    0x08007198   0x00000044   Data   RO          238    .conststring        sim800c.o
    0x080071dc   0x00000046   Data   RO          335    .conststring        main.o
    0x08007222   0x00000002   PAD
    0x08007224   0x00000020   Data   RO          771    Region$$Table       anon$$obj.o


    Execution Region RW_IRAM1 (Base: 0x20000000, Size: 0x00003498, Max: 0x00005000, ABSOLUTE)

    Base Addr    Size         Type   Attr      Idx    E Section Name        Object

    0x20000000   0x00000014   Data   RW           18    .data               system_stm32f10x.o
    0x20000014   0x00000014   Data   RW           65    .data               stm32f10x_rcc.o
    0x20000028   0x0000000c   Data   RW          135    .data               usart.o
    0x20000034   0x00000004   Data   RW          170    .data               delay.o
    0x20000038   0x00000098   Data   RW          239    .data               sim800c.o
    0x200000d0   0x00000002   Data   RW          276    .data               timer.o
    0x200000d2   0x00000002   PAD
    0x200000d4   0x00000014   Data   RW          294    .data               malloc.o
    0x200000e8   0x00000006   Data   RW          336    .data               main.o
    0x200000ee   0x00000002   PAD
    0x200000f0   0x00000004   Data   RW          735    .data               mc_w.l(errno.o)
    0x200000f4   0x00000258   Zero   RW          134    .bss                usart.o
    0x2000034c   0x00000190   Zero   RW          237    .bss                sim800c.o
    0x200004dc   0x00000004   PAD
    0x200004e0   0x00002a80   Zero   RW          292    .bss                malloc.o
    0x20002f60   0x00000138   Zero   RW          334    .bss                main.o
    0x20003098   0x00000400   Zero   RW           57    STACK               startup_stm32f10x_md.o


==============================================================================

Image component sizes


      Code (inc. data)   RO Data    RW Data    ZI Data      Debug   Object Name

         0          0          0          0          0       4536   core_cm3.o
      1208         48          0          0          0       5080   dataprocess.o
       172          8          0          4          0       1123   delay.o
       188         24          0          0          0       1014   led.o
      1844        302         70          6        312       3159   main.o
       556         18         12         20      10880       4639   malloc.o
       220         22          0          0          0       1973   misc.o
      7164       2180         68        152        400      10283   sim800c.o
        36          8        236          0       1024        916   startup_stm32f10x_md.o
       860         38          0          0          0       5817   stm32f10x_gpio.o
        28          0          0          0          0       2517   stm32f10x_it.o
       932         36          0         20          0       9044   stm32f10x_rcc.o
      3610         88          0          0          0      42776   stm32f10x_tim.o
      1032         22          0          0          0       8544   stm32f10x_usart.o
       480         38          0         20          0     229307   system_stm32f10x.o
       264         14          0          2          0       1301   timer.o
      1044         48          0         12        600       6447   usart.o

    ----------------------------------------------------------------------
     19640       2894        420        240      13220     338476   Object Totals
         0          0         32          0          0          0   (incl. Generated)
         2          0          2          4          4          0   (incl. Padding)

    ----------------------------------------------------------------------

      Code (inc. data)   RO Data    RW Data    ZI Data      Debug   Library Member Name

        42          0          0          0          0         84   atof.o
        62         10          0          0          0        340   dunder.o
        40          0          0          0          0         68   fpclassify.o
       170          0          0          0          0         96   poly.o
      2488        190        136          0          0        300   pow.o
         0          0          8          0          0          0   qnan.o
        76          0          0          0          0         84   sqrt.o
        64          0          0          0          0         84   _sgetc.o
        40          6         64          0          0         68   ctype_c.o
         0          0          0          0          0          0   entry.o
         0          0          0          0          0          0   entry10a.o
         0          0          0          0          0          0   entry11a.o
         8          4          0          0          0          0   entry2.o
         4          0          0          0          0          0   entry5.o
         0          0          0          0          0          0   entry7b.o
         0          0          0          0          0          0   entry8b.o
         8          4          0          0          0          0   entry9a.o
        24         12          0          4          0        136   errno.o
        30          0          0          0          0          0   handlers.o
        36          8          0          0          0         68   init.o
        10          0          0          0          0         68   isspace_c.o
         0          0          0          0          0          0   iusefp.o
        30          0          0          0          0         68   llshl.o
        36          0          0          0          0         68   llsshr.o
        32          0          0          0          0         68   llushr.o
        36          0          0          0          0         68   memcpya.o
        36          0          0          0          0        108   memseta.o
      2312        102          0          0          0        676   printfa.o
       838         12          0          0          0        216   scanf_fp.o
        24          0          0          0          0         68   strcat.o
        18          0          0          0          0         68   strcpy.o
        14          0          0          0          0         68   strlen.o
        36          0          0          0          0         80   strstr.o
       156         14          0          0          0        120   strtod.o
        44          0          0          0          0         80   uidiv.o
        98          0          0          0          0         92   uldiv.o
        48          0          0          0          0         68   cdcmple.o
        48          0          0          0          0         68   cdrcmple.o
        20          0          0          0          0         68   cfcmple.o
        20          0          0          0          0         68   cfrcmple.o
        56          0          0          0          0         88   d2f.o
       334          0          0          0          0        148   dadd.o
       222          0          0          0          0        100   ddiv.o
       186          0          0          0          0        176   depilogue.o
        62          0          0          0          0         80   dfixi.o
        50          0          0          0          0         76   dfixui.o
        48          0          0          0          0         68   dfixul.o
        34          0          0          0          0         76   dflti.o
        26          0          0          0          0         76   dfltui.o
        24          0          0          0          0         76   dfltul.o
       228          0          0          0          0         96   dmul.o
        46          0          0          0          0         80   dscalb.o
       162          0          0          0          0        100   dsqrt.o
        38          0          0          0          0         68   f2d.o
       176          0          0          0          0        140   fadd.o
       110          0          0          0          0        168   fepilogue.o
        50          0          0          0          0         68   ffixi.o
        40          0          0          0          0         68   ffixui.o
        18          0          0          0          0         68   fflti.o
        10          0          0          0          0         68   ffltui.o
       100          0          0          0          0         76   fmul.o

    ----------------------------------------------------------------------
      8984        362        208          4          0       5480   Library Totals
        16          0          0          0          0          0   (incl. Padding)

    ----------------------------------------------------------------------

      Code (inc. data)   RO Data    RW Data    ZI Data      Debug   Library Name

      2878        200        144          0          0        972   m_ws.l
      3934        162         64          4          0       2272   mc_w.l
      2156          0          0          0          0       2236   mf_w.l

    ----------------------------------------------------------------------
      8984        362        208          4          0       5480   Library Totals

    ----------------------------------------------------------------------

==============================================================================


      Code (inc. data)   RO Data    RW Data    ZI Data      Debug   

     28624       3256        628        244      13220     339740   Grand Totals
     28624       3256        628        244      13220     339740   ELF Image Totals
     28624       3256        628        244          0          0   ROM Totals

==============================================================================

    Total RO  Size (Code + RO Data)                29252 (  28.57kB)
    Total RW  Size (RW Data + ZI Data)             13464 (  13.15kB)
    Total ROM Size (Code + RO Data + RW Data)      29496 (  28.80kB)

==============================================================================

